{
  "address": "0x5FbDB2315678afecb367f032d93F642f64180aa3",
  "abi": [
    {
      "inputs": [
        {
          "internalType": "uint256",
          "name": "_withdrawFees",
          "type": "uint256"
        }
      ],
      "stateMutability": "nonpayable",
      "type": "constructor"
    },
    {
      "inputs": [
        {
          "internalType": "address",
          "name": "nftAddress",
          "type": "address"
        },
        {
          "internalType": "uint256",
          "name": "tokenId",
          "type": "uint256"
        }
      ],
      "name": "NftMarketPlace__AlreadyListed",
      "type": "error"
    },
    {
      "inputs": [],
      "name": "NftMarketPlace__FeesTransferFailed",
      "type": "error"
    },
    {
      "inputs": [],
      "name": "NftMarketPlace__NoProceeds",
      "type": "error"
    },
    {
      "inputs": [],
      "name": "NftMarketPlace__NotApproveForMarketPlace",
      "type": "error"
    },
    {
      "inputs": [
        {
          "internalType": "address",
          "name": "nftAddress",
          "type": "address"
        },
        {
          "internalType": "uint256",
          "name": "tokenId",
          "type": "uint256"
        }
      ],
      "name": "NftMarketPlace__NotListed",
      "type": "error"
    },
    {
      "inputs": [],
      "name": "NftMarketPlace__NotNftOwner",
      "type": "error"
    },
    {
      "inputs": [],
      "name": "NftMarketPlace__PriceMustBeAboveZero",
      "type": "error"
    },
    {
      "inputs": [
        {
          "internalType": "address",
          "name": "nftAddress",
          "type": "address"
        },
        {
          "internalType": "uint256",
          "name": "tokenId",
          "type": "uint256"
        },
        {
          "internalType": "uint256",
          "name": "price",
          "type": "uint256"
        }
      ],
      "name": "NftMarketPlace__PriceNotMet",
      "type": "error"
    },
    {
      "inputs": [],
      "name": "NftMarketPlace__TransferFailed",
      "type": "error"
    },
    {
      "anonymous": false,
      "inputs": [
        {
          "indexed": true,
          "internalType": "address",
          "name": "buyer",
          "type": "address"
        },
        {
          "indexed": true,
          "internalType": "address",
          "name": "nftAddress",
          "type": "address"
        },
        {
          "indexed": true,
          "internalType": "uint256",
          "name": "tokenId",
          "type": "uint256"
        },
        {
          "indexed": false,
          "internalType": "uint256",
          "name": "price",
          "type": "uint256"
        }
      ],
      "name": "ItemBought",
      "type": "event"
    },
    {
      "anonymous": false,
      "inputs": [
        {
          "indexed": true,
          "internalType": "address",
          "name": "seller",
          "type": "address"
        },
        {
          "indexed": true,
          "internalType": "address",
          "name": "nftAddress",
          "type": "address"
        },
        {
          "indexed": false,
          "internalType": "uint256",
          "name": "tokenId",
          "type": "uint256"
        }
      ],
      "name": "ItemCanceled",
      "type": "event"
    },
    {
      "anonymous": false,
      "inputs": [
        {
          "indexed": true,
          "internalType": "address",
          "name": "seller",
          "type": "address"
        },
        {
          "indexed": true,
          "internalType": "address",
          "name": "nftAddress",
          "type": "address"
        },
        {
          "indexed": true,
          "internalType": "uint256",
          "name": "tokenId",
          "type": "uint256"
        },
        {
          "indexed": false,
          "internalType": "uint256",
          "name": "price",
          "type": "uint256"
        }
      ],
      "name": "ItemListed",
      "type": "event"
    },
    {
      "inputs": [
        {
          "internalType": "address",
          "name": "nftAddress",
          "type": "address"
        },
        {
          "internalType": "uint256",
          "name": "tokenId",
          "type": "uint256"
        }
      ],
      "name": "buyItem",
      "outputs": [],
      "stateMutability": "payable",
      "type": "function"
    },
    {
      "inputs": [
        {
          "internalType": "address",
          "name": "nftAddress",
          "type": "address"
        },
        {
          "internalType": "uint256",
          "name": "tokenId",
          "type": "uint256"
        }
      ],
      "name": "cancelListing",
      "outputs": [],
      "stateMutability": "nonpayable",
      "type": "function"
    },
    {
      "inputs": [
        {
          "internalType": "address",
          "name": "nftAddress",
          "type": "address"
        },
        {
          "internalType": "uint256",
          "name": "tokenId",
          "type": "uint256"
        }
      ],
      "name": "getListing",
      "outputs": [
        {
          "components": [
            {
              "internalType": "uint256",
              "name": "price",
              "type": "uint256"
            },
            {
              "internalType": "address",
              "name": "seller",
              "type": "address"
            }
          ],
          "internalType": "struct NftMarketPlace.Listing",
          "name": "",
          "type": "tuple"
        }
      ],
      "stateMutability": "view",
      "type": "function"
    },
    {
      "inputs": [
        {
          "internalType": "address",
          "name": "seller",
          "type": "address"
        }
      ],
      "name": "getProceeds",
      "outputs": [
        {
          "internalType": "uint256",
          "name": "",
          "type": "uint256"
        }
      ],
      "stateMutability": "view",
      "type": "function"
    },
    {
      "inputs": [
        {
          "internalType": "address",
          "name": "nftAddress",
          "type": "address"
        },
        {
          "internalType": "uint256",
          "name": "tokenId",
          "type": "uint256"
        },
        {
          "internalType": "uint256",
          "name": "price",
          "type": "uint256"
        }
      ],
      "name": "listItem",
      "outputs": [],
      "stateMutability": "nonpayable",
      "type": "function"
    },
    {
      "inputs": [],
      "name": "owner",
      "outputs": [
        {
          "internalType": "address",
          "name": "",
          "type": "address"
        }
      ],
      "stateMutability": "view",
      "type": "function"
    },
    {
      "inputs": [
        {
          "internalType": "address",
          "name": "nftAddress",
          "type": "address"
        },
        {
          "internalType": "uint256",
          "name": "tokenId",
          "type": "uint256"
        },
        {
          "internalType": "uint256",
          "name": "newPrice",
          "type": "uint256"
        }
      ],
      "name": "updateListing",
      "outputs": [],
      "stateMutability": "nonpayable",
      "type": "function"
    },
    {
      "inputs": [],
      "name": "withdrawFees",
      "outputs": [
        {
          "internalType": "uint256",
          "name": "",
          "type": "uint256"
        }
      ],
      "stateMutability": "view",
      "type": "function"
    },
    {
      "inputs": [],
      "name": "withdrawProceeds",
      "outputs": [],
      "stateMutability": "payable",
      "type": "function"
    }
  ],
  "transactionHash": "0x5c41c0a4100bbaff1efb354bda9414de61e4ed707ab169a0a66a6e4a536b42d2",
  "args": [
    5
  ],
  "numDeployments": 1,
  "solcInputHash": "3898b3a0e4c136d415e58b4662043a7e",
  "bytecode": "0x608060405234801562000010575f80fd5b5060405162001a0538038062001a058339818101604052810190620000369190620000c7565b60015f819055503360015f6101000a81548173ffffffffffffffffffffffffffffffffffffffff021916908373ffffffffffffffffffffffffffffffffffffffff1602179055508060028190555050620000f7565b5f80fd5b5f819050919050565b620000a3816200008f565b8114620000ae575f80fd5b50565b5f81519050620000c18162000098565b92915050565b5f60208284031215620000df57620000de6200008b565b5b5f620000ee84828501620000b1565b91505092915050565b61190080620001055f395ff3fe608060405260043610610085575f3560e01c80638da5cb5b116100585780638da5cb5b146101535780639038e6931461017d5780639f37092a14610187578063b2ddee06146101a3578063f772adf1146101cb57610085565b806330cfeda914610089578063476343ee146100c557806388700d1c146100ef57806389bfd38f1461012b575b5f80fd5b348015610094575f80fd5b506100af60048036038101906100aa9190611470565b6101f3565b6040516100bc91906114b3565b60405180910390f35b3480156100d0575f80fd5b506100d9610239565b6040516100e691906114b3565b60405180910390f35b3480156100fa575f80fd5b50610115600480360381019061011091906114f6565b61023f565b604051610122919061157f565b60405180910390f35b348015610136575f80fd5b50610151600480360381019061014c9190611598565b610304565b005b34801561015e575f80fd5b50610167610746565b60405161017491906115f7565b60405180910390f35b61018561076b565b005b6101a1600480360381019061019c91906114f6565b6109c9565b005b3480156101ae575f80fd5b506101c960048036038101906101c491906114f6565b610dcf565b005b3480156101d6575f80fd5b506101f160048036038101906101ec9190611598565b6110a5565b005b5f60045f8373ffffffffffffffffffffffffffffffffffffffff1673ffffffffffffffffffffffffffffffffffffffff1681526020019081526020015f20549050919050565b60025481565b6102476113e4565b60035f8473ffffffffffffffffffffffffffffffffffffffff1673ffffffffffffffffffffffffffffffffffffffff1681526020019081526020015f205f8381526020019081526020015f206040518060400160405290815f8201548152602001600182015f9054906101000a900473ffffffffffffffffffffffffffffffffffffffff1673ffffffffffffffffffffffffffffffffffffffff1673ffffffffffffffffffffffffffffffffffffffff1681525050905092915050565b8282335f60035f8573ffffffffffffffffffffffffffffffffffffffff1673ffffffffffffffffffffffffffffffffffffffff1681526020019081526020015f205f8481526020019081526020015f206040518060400160405290815f8201548152602001600182015f9054906101000a900473ffffffffffffffffffffffffffffffffffffffff1673ffffffffffffffffffffffffffffffffffffffff1673ffffffffffffffffffffffffffffffffffffffff168152505090505f815f015111156104095783836040517ffa1d424f000000000000000000000000000000000000000000000000000000008152600401610400929190611610565b60405180910390fd5b8686335f8390505f8173ffffffffffffffffffffffffffffffffffffffff16636352211e856040518263ffffffff1660e01b815260040161044a91906114b3565b602060405180830381865afa158015610465573d5f803e3d5ffd5b505050506040513d601f19601f82011682018060405250810190610489919061164b565b90508073ffffffffffffffffffffffffffffffffffffffff168373ffffffffffffffffffffffffffffffffffffffff16146104f0576040517fd0f0213d00000000000000000000000000000000000000000000000000000000815260040160405180910390fd5b5f8a11610529576040517f01e6e2e700000000000000000000000000000000000000000000000000000000815260040160405180910390fd5b5f8c90503073ffffffffffffffffffffffffffffffffffffffff168173ffffffffffffffffffffffffffffffffffffffff1663081812fc8e6040518263ffffffff1660e01b815260040161057d91906114b3565b602060405180830381865afa158015610598573d5f803e3d5ffd5b505050506040513d601f19601f820116820180604052508101906105bc919061164b565b73ffffffffffffffffffffffffffffffffffffffff1614610609576040517fc845ea0f00000000000000000000000000000000000000000000000000000000815260040160405180910390fd5b60405180604001604052808c81526020013373ffffffffffffffffffffffffffffffffffffffff1681525060035f8f73ffffffffffffffffffffffffffffffffffffffff1673ffffffffffffffffffffffffffffffffffffffff1681526020019081526020015f205f8e81526020019081526020015f205f820151815f01556020820151816001015f6101000a81548173ffffffffffffffffffffffffffffffffffffffff021916908373ffffffffffffffffffffffffffffffffffffffff1602179055509050508b8d73ffffffffffffffffffffffffffffffffffffffff163373ffffffffffffffffffffffffffffffffffffffff167fd547e933094f12a9159076970143ebe73234e64480317844b0dcb36117116de48e60405161072f91906114b3565b60405180910390a450505050505050505050505050565b60015f9054906101000a900473ffffffffffffffffffffffffffffffffffffffff1681565b61077361138e565b5f60045f3373ffffffffffffffffffffffffffffffffffffffff1673ffffffffffffffffffffffffffffffffffffffff1681526020019081526020015f205490505f81116107ed576040517faaefe00600000000000000000000000000000000000000000000000000000000815260040160405180910390fd5b5f60045f3373ffffffffffffffffffffffffffffffffffffffff1673ffffffffffffffffffffffffffffffffffffffff1681526020019081526020015f20819055505f60646002548361084091906116a3565b61084a9190611711565b90505f81836108599190611741565b90505f60015f9054906101000a900473ffffffffffffffffffffffffffffffffffffffff1673ffffffffffffffffffffffffffffffffffffffff16836040516108a1906117a1565b5f6040518083038185875af1925050503d805f81146108db576040519150601f19603f3d011682016040523d82523d5f602084013e6108e0565b606091505b505090508061091b576040517f6d4f33ff00000000000000000000000000000000000000000000000000000000815260040160405180910390fd5b5f3373ffffffffffffffffffffffffffffffffffffffff1683604051610940906117a1565b5f6040518083038185875af1925050503d805f811461097a576040519150601f19603f3d011682016040523d82523d5f602084013e61097f565b606091505b50509050806109ba576040517fcf0afe3900000000000000000000000000000000000000000000000000000000815260040160405180910390fd5b50505050506109c76113db565b565b6109d161138e565b81815f60035f8473ffffffffffffffffffffffffffffffffffffffff1673ffffffffffffffffffffffffffffffffffffffff1681526020019081526020015f205f8381526020019081526020015f206040518060400160405290815f8201548152602001600182015f9054906101000a900473ffffffffffffffffffffffffffffffffffffffff1673ffffffffffffffffffffffffffffffffffffffff1673ffffffffffffffffffffffffffffffffffffffff168152505090505f815f015111610ad45782826040517f2e650be0000000000000000000000000000000000000000000000000000000008152600401610acb929190611610565b60405180910390fd5b5f60035f8773ffffffffffffffffffffffffffffffffffffffff1673ffffffffffffffffffffffffffffffffffffffff1681526020019081526020015f205f8681526020019081526020015f206040518060400160405290815f8201548152602001600182015f9054906101000a900473ffffffffffffffffffffffffffffffffffffffff1673ffffffffffffffffffffffffffffffffffffffff1673ffffffffffffffffffffffffffffffffffffffff16815250509050805f0151341015610bdb578585825f01516040517f2425ddb3000000000000000000000000000000000000000000000000000000008152600401610bd2939291906117b5565b60405180910390fd5b3460045f836020015173ffffffffffffffffffffffffffffffffffffffff1673ffffffffffffffffffffffffffffffffffffffff1681526020019081526020015f2054610c2891906117ea565b60045f836020015173ffffffffffffffffffffffffffffffffffffffff1673ffffffffffffffffffffffffffffffffffffffff1681526020019081526020015f208190555060035f8773ffffffffffffffffffffffffffffffffffffffff1673ffffffffffffffffffffffffffffffffffffffff1681526020019081526020015f205f8681526020019081526020015f205f8082015f9055600182015f6101000a81549073ffffffffffffffffffffffffffffffffffffffff021916905550508573ffffffffffffffffffffffffffffffffffffffff166342842e0e826020015133886040518463ffffffff1660e01b8152600401610d299392919061181d565b5f604051808303815f87803b158015610d40575f80fd5b505af1158015610d52573d5f803e3d5ffd5b50505050848673ffffffffffffffffffffffffffffffffffffffff163373ffffffffffffffffffffffffffffffffffffffff167f263223b1dd81e51054a4e6f791d45a4a1ddb4aadcd93a2dfd892615c3fdac187845f0151604051610db791906114b3565b60405180910390a450505050610dcb6113db565b5050565b8181335f8390505f8173ffffffffffffffffffffffffffffffffffffffff16636352211e856040518263ffffffff1660e01b8152600401610e1091906114b3565b602060405180830381865afa158015610e2b573d5f803e3d5ffd5b505050506040513d601f19601f82011682018060405250810190610e4f919061164b565b90508073ffffffffffffffffffffffffffffffffffffffff168373ffffffffffffffffffffffffffffffffffffffff1614610eb6576040517fd0f0213d00000000000000000000000000000000000000000000000000000000815260040160405180910390fd5b86865f60035f8473ffffffffffffffffffffffffffffffffffffffff1673ffffffffffffffffffffffffffffffffffffffff1681526020019081526020015f205f8381526020019081526020015f206040518060400160405290815f8201548152602001600182015f9054906101000a900473ffffffffffffffffffffffffffffffffffffffff1673ffffffffffffffffffffffffffffffffffffffff1673ffffffffffffffffffffffffffffffffffffffff168152505090505f815f015111610fb95782826040517f2e650be0000000000000000000000000000000000000000000000000000000008152600401610fb0929190611610565b60405180910390fd5b60035f8b73ffffffffffffffffffffffffffffffffffffffff1673ffffffffffffffffffffffffffffffffffffffff1681526020019081526020015f205f8a81526020019081526020015f205f8082015f9055600182015f6101000a81549073ffffffffffffffffffffffffffffffffffffffff021916905550508973ffffffffffffffffffffffffffffffffffffffff163373ffffffffffffffffffffffffffffffffffffffff167f9ba1a3cb55ce8d63d072a886f94d2a744f50cddf82128e897d0661f5ec6231588b60405161109191906114b3565b60405180910390a350505050505050505050565b8282335f8390505f8173ffffffffffffffffffffffffffffffffffffffff16636352211e856040518263ffffffff1660e01b81526004016110e691906114b3565b602060405180830381865afa158015611101573d5f803e3d5ffd5b505050506040513d601f19601f82011682018060405250810190611125919061164b565b90508073ffffffffffffffffffffffffffffffffffffffff168373ffffffffffffffffffffffffffffffffffffffff161461118c576040517fd0f0213d00000000000000000000000000000000000000000000000000000000815260040160405180910390fd5b87875f60035f8473ffffffffffffffffffffffffffffffffffffffff1673ffffffffffffffffffffffffffffffffffffffff1681526020019081526020015f205f8381526020019081526020015f206040518060400160405290815f8201548152602001600182015f9054906101000a900473ffffffffffffffffffffffffffffffffffffffff1673ffffffffffffffffffffffffffffffffffffffff1673ffffffffffffffffffffffffffffffffffffffff168152505090505f815f01511161128f5782826040517f2e650be0000000000000000000000000000000000000000000000000000000008152600401611286929190611610565b60405180910390fd5b5f89116112c8576040517f01e6e2e700000000000000000000000000000000000000000000000000000000815260040160405180910390fd5b8860035f8d73ffffffffffffffffffffffffffffffffffffffff1673ffffffffffffffffffffffffffffffffffffffff1681526020019081526020015f205f8c81526020019081526020015f205f0181905550898b73ffffffffffffffffffffffffffffffffffffffff163373ffffffffffffffffffffffffffffffffffffffff167fd547e933094f12a9159076970143ebe73234e64480317844b0dcb36117116de48c60405161137991906114b3565b60405180910390a45050505050505050505050565b60025f54036113d2576040517f08c379a00000000000000000000000000000000000000000000000000000000081526004016113c9906118ac565b60405180910390fd5b60025f81905550565b60015f81905550565b60405180604001604052805f81526020015f73ffffffffffffffffffffffffffffffffffffffff1681525090565b5f80fd5b5f73ffffffffffffffffffffffffffffffffffffffff82169050919050565b5f61143f82611416565b9050919050565b61144f81611435565b8114611459575f80fd5b50565b5f8135905061146a81611446565b92915050565b5f6020828403121561148557611484611412565b5b5f6114928482850161145c565b91505092915050565b5f819050919050565b6114ad8161149b565b82525050565b5f6020820190506114c65f8301846114a4565b92915050565b6114d58161149b565b81146114df575f80fd5b50565b5f813590506114f0816114cc565b92915050565b5f806040838503121561150c5761150b611412565b5b5f6115198582860161145c565b925050602061152a858286016114e2565b9150509250929050565b61153d8161149b565b82525050565b61154c81611435565b82525050565b604082015f8201516115665f850182611534565b5060208201516115796020850182611543565b50505050565b5f6040820190506115925f830184611552565b92915050565b5f805f606084860312156115af576115ae611412565b5b5f6115bc8682870161145c565b93505060206115cd868287016114e2565b92505060406115de868287016114e2565b9150509250925092565b6115f181611435565b82525050565b5f60208201905061160a5f8301846115e8565b92915050565b5f6040820190506116235f8301856115e8565b61163060208301846114a4565b9392505050565b5f8151905061164581611446565b92915050565b5f602082840312156116605761165f611412565b5b5f61166d84828501611637565b91505092915050565b7f4e487b71000000000000000000000000000000000000000000000000000000005f52601160045260245ffd5b5f6116ad8261149b565b91506116b88361149b565b92508282026116c68161149b565b915082820484148315176116dd576116dc611676565b5b5092915050565b7f4e487b71000000000000000000000000000000000000000000000000000000005f52601260045260245ffd5b5f61171b8261149b565b91506117268361149b565b925082611736576117356116e4565b5b828204905092915050565b5f61174b8261149b565b91506117568361149b565b925082820390508181111561176e5761176d611676565b5b92915050565b5f81905092915050565b50565b5f61178c5f83611774565b91506117978261177e565b5f82019050919050565b5f6117ab82611781565b9150819050919050565b5f6060820190506117c85f8301866115e8565b6117d560208301856114a4565b6117e260408301846114a4565b949350505050565b5f6117f48261149b565b91506117ff8361149b565b925082820190508082111561181757611816611676565b5b92915050565b5f6060820190506118305f8301866115e8565b61183d60208301856115e8565b61184a60408301846114a4565b949350505050565b5f82825260208201905092915050565b7f5265656e7472616e637947756172643a207265656e7472616e742063616c6c005f82015250565b5f611896601f83611852565b91506118a182611862565b602082019050919050565b5f6020820190508181035f8301526118c38161188a565b905091905056fea2646970667358221220fede095e31f1e6e2cff780b8d227e62c1ad9555394b5bc9822f3506197840e7864736f6c63430008140033",
  "devdoc": {
    "kind": "dev",
    "methods": {
      "listItem(address,uint256,uint256)": {
        "details": "Tecnically, we could have the contract be the escrow for the NFTs but this way people can still hold their NFTs when listed.",
        "params": {
          "nftAddress": ": Address of th NFT",
          "price": ": sale price of the listed NFT",
          "tokenId": ": The TokenID of the NFT"
        }
      }
    },
    "version": 1
  },
  "userdoc": {
    "kind": "user",
    "methods": {
      "listItem(address,uint256,uint256)": {
        "notice": "Method for listing your NFT on the marketplace"
      }
    },
    "version": 1
  },
  "storageLayout": {
    "storage": [
      {
        "astId": 38,
        "contract": "contracts/NftMarketPlace.sol:NftMarketPlace",
        "label": "_status",
        "offset": 0,
        "slot": "0",
        "type": "t_uint256"
      },
      {
        "astId": 3005,
        "contract": "contracts/NftMarketPlace.sol:NftMarketPlace",
        "label": "owner",
        "offset": 0,
        "slot": "1",
        "type": "t_address"
      },
      {
        "astId": 3007,
        "contract": "contracts/NftMarketPlace.sol:NftMarketPlace",
        "label": "withdrawFees",
        "offset": 0,
        "slot": "2",
        "type": "t_uint256"
      },
      {
        "astId": 3014,
        "contract": "contracts/NftMarketPlace.sol:NftMarketPlace",
        "label": "s_listings",
        "offset": 0,
        "slot": "3",
        "type": "t_mapping(t_address,t_mapping(t_uint256,t_struct(Listing)2975_storage))"
      },
      {
        "astId": 3018,
        "contract": "contracts/NftMarketPlace.sol:NftMarketPlace",
        "label": "s_proceeds",
        "offset": 0,
        "slot": "4",
        "type": "t_mapping(t_address,t_uint256)"
      }
    ],
    "types": {
      "t_address": {
        "encoding": "inplace",
        "label": "address",
        "numberOfBytes": "20"
      },
      "t_mapping(t_address,t_mapping(t_uint256,t_struct(Listing)2975_storage))": {
        "encoding": "mapping",
        "key": "t_address",
        "label": "mapping(address => mapping(uint256 => struct NftMarketPlace.Listing))",
        "numberOfBytes": "32",
        "value": "t_mapping(t_uint256,t_struct(Listing)2975_storage)"
      },
      "t_mapping(t_address,t_uint256)": {
        "encoding": "mapping",
        "key": "t_address",
        "label": "mapping(address => uint256)",
        "numberOfBytes": "32",
        "value": "t_uint256"
      },
      "t_mapping(t_uint256,t_struct(Listing)2975_storage)": {
        "encoding": "mapping",
        "key": "t_uint256",
        "label": "mapping(uint256 => struct NftMarketPlace.Listing)",
        "numberOfBytes": "32",
        "value": "t_struct(Listing)2975_storage"
      },
      "t_struct(Listing)2975_storage": {
        "encoding": "inplace",
        "label": "struct NftMarketPlace.Listing",
        "members": [
          {
            "astId": 2972,
            "contract": "contracts/NftMarketPlace.sol:NftMarketPlace",
            "label": "price",
            "offset": 0,
            "slot": "0",
            "type": "t_uint256"
          },
          {
            "astId": 2974,
            "contract": "contracts/NftMarketPlace.sol:NftMarketPlace",
            "label": "seller",
            "offset": 0,
            "slot": "1",
            "type": "t_address"
          }
        ],
        "numberOfBytes": "64"
      },
      "t_uint256": {
        "encoding": "inplace",
        "label": "uint256",
        "numberOfBytes": "32"
      }
    }
  }
}