{
  "address": "0x74EFD13F42f9Ed1a8cE464D839AD8f3c202cdbcf",
  "abi": [
    {
      "inputs": [],
      "stateMutability": "nonpayable",
      "type": "constructor"
    },
    {
      "anonymous": false,
      "inputs": [
        {
          "indexed": true,
          "internalType": "address",
          "name": "owner",
          "type": "address"
        },
        {
          "indexed": true,
          "internalType": "address",
          "name": "approved",
          "type": "address"
        },
        {
          "indexed": true,
          "internalType": "uint256",
          "name": "tokenId",
          "type": "uint256"
        }
      ],
      "name": "Approval",
      "type": "event"
    },
    {
      "anonymous": false,
      "inputs": [
        {
          "indexed": true,
          "internalType": "address",
          "name": "owner",
          "type": "address"
        },
        {
          "indexed": true,
          "internalType": "address",
          "name": "operator",
          "type": "address"
        },
        {
          "indexed": false,
          "internalType": "bool",
          "name": "approved",
          "type": "bool"
        }
      ],
      "name": "ApprovalForAll",
      "type": "event"
    },
    {
      "anonymous": false,
      "inputs": [
        {
          "indexed": false,
          "internalType": "uint256",
          "name": "_fromTokenId",
          "type": "uint256"
        },
        {
          "indexed": false,
          "internalType": "uint256",
          "name": "_toTokenId",
          "type": "uint256"
        }
      ],
      "name": "BatchMetadataUpdate",
      "type": "event"
    },
    {
      "anonymous": false,
      "inputs": [
        {
          "indexed": false,
          "internalType": "uint256",
          "name": "_tokenId",
          "type": "uint256"
        }
      ],
      "name": "MetadataUpdate",
      "type": "event"
    },
    {
      "anonymous": false,
      "inputs": [
        {
          "indexed": true,
          "internalType": "address",
          "name": "from",
          "type": "address"
        },
        {
          "indexed": true,
          "internalType": "address",
          "name": "to",
          "type": "address"
        },
        {
          "indexed": true,
          "internalType": "uint256",
          "name": "tokenId",
          "type": "uint256"
        }
      ],
      "name": "Transfer",
      "type": "event"
    },
    {
      "inputs": [
        {
          "internalType": "address",
          "name": "to",
          "type": "address"
        },
        {
          "internalType": "uint256",
          "name": "tokenId",
          "type": "uint256"
        }
      ],
      "name": "approve",
      "outputs": [],
      "stateMutability": "nonpayable",
      "type": "function"
    },
    {
      "inputs": [
        {
          "internalType": "address",
          "name": "owner",
          "type": "address"
        }
      ],
      "name": "balanceOf",
      "outputs": [
        {
          "internalType": "uint256",
          "name": "",
          "type": "uint256"
        }
      ],
      "stateMutability": "view",
      "type": "function"
    },
    {
      "inputs": [
        {
          "internalType": "uint256",
          "name": "tokenId",
          "type": "uint256"
        }
      ],
      "name": "getApproved",
      "outputs": [
        {
          "internalType": "address",
          "name": "",
          "type": "address"
        }
      ],
      "stateMutability": "view",
      "type": "function"
    },
    {
      "inputs": [
        {
          "internalType": "address",
          "name": "owner",
          "type": "address"
        },
        {
          "internalType": "address",
          "name": "operator",
          "type": "address"
        }
      ],
      "name": "isApprovedForAll",
      "outputs": [
        {
          "internalType": "bool",
          "name": "",
          "type": "bool"
        }
      ],
      "stateMutability": "view",
      "type": "function"
    },
    {
      "inputs": [],
      "name": "name",
      "outputs": [
        {
          "internalType": "string",
          "name": "",
          "type": "string"
        }
      ],
      "stateMutability": "view",
      "type": "function"
    },
    {
      "inputs": [
        {
          "internalType": "uint256",
          "name": "tokenId",
          "type": "uint256"
        }
      ],
      "name": "ownerOf",
      "outputs": [
        {
          "internalType": "address",
          "name": "",
          "type": "address"
        }
      ],
      "stateMutability": "view",
      "type": "function"
    },
    {
      "inputs": [
        {
          "internalType": "string",
          "name": "uri",
          "type": "string"
        }
      ],
      "name": "safeMint",
      "outputs": [],
      "stateMutability": "nonpayable",
      "type": "function"
    },
    {
      "inputs": [
        {
          "internalType": "address",
          "name": "from",
          "type": "address"
        },
        {
          "internalType": "address",
          "name": "to",
          "type": "address"
        },
        {
          "internalType": "uint256",
          "name": "tokenId",
          "type": "uint256"
        }
      ],
      "name": "safeTransferFrom",
      "outputs": [],
      "stateMutability": "nonpayable",
      "type": "function"
    },
    {
      "inputs": [
        {
          "internalType": "address",
          "name": "from",
          "type": "address"
        },
        {
          "internalType": "address",
          "name": "to",
          "type": "address"
        },
        {
          "internalType": "uint256",
          "name": "tokenId",
          "type": "uint256"
        },
        {
          "internalType": "bytes",
          "name": "data",
          "type": "bytes"
        }
      ],
      "name": "safeTransferFrom",
      "outputs": [],
      "stateMutability": "nonpayable",
      "type": "function"
    },
    {
      "inputs": [
        {
          "internalType": "address",
          "name": "operator",
          "type": "address"
        },
        {
          "internalType": "bool",
          "name": "approved",
          "type": "bool"
        }
      ],
      "name": "setApprovalForAll",
      "outputs": [],
      "stateMutability": "nonpayable",
      "type": "function"
    },
    {
      "inputs": [
        {
          "internalType": "bytes4",
          "name": "interfaceId",
          "type": "bytes4"
        }
      ],
      "name": "supportsInterface",
      "outputs": [
        {
          "internalType": "bool",
          "name": "",
          "type": "bool"
        }
      ],
      "stateMutability": "view",
      "type": "function"
    },
    {
      "inputs": [],
      "name": "symbol",
      "outputs": [
        {
          "internalType": "string",
          "name": "",
          "type": "string"
        }
      ],
      "stateMutability": "view",
      "type": "function"
    },
    {
      "inputs": [
        {
          "internalType": "uint256",
          "name": "tokenId",
          "type": "uint256"
        }
      ],
      "name": "tokenURI",
      "outputs": [
        {
          "internalType": "string",
          "name": "",
          "type": "string"
        }
      ],
      "stateMutability": "view",
      "type": "function"
    },
    {
      "inputs": [
        {
          "internalType": "address",
          "name": "from",
          "type": "address"
        },
        {
          "internalType": "address",
          "name": "to",
          "type": "address"
        },
        {
          "internalType": "uint256",
          "name": "tokenId",
          "type": "uint256"
        }
      ],
      "name": "transferFrom",
      "outputs": [],
      "stateMutability": "nonpayable",
      "type": "function"
    }
  ],
  "transactionHash": "0x4dafd341866d682610b41e62515af429e4ffc2d41cdf9a597bee7150c064acee",
  "args": [],
  "numDeployments": 1,
  "solcInputHash": "96d62b1d2cde05a5780506f4ffa024aa",
  "bytecode": "0x608060405234801562000010575f80fd5b506040518060400160405280600d81526020017f416c616e6c65204d696e746572000000000000000000000000000000000000008152506040518060400160405280600381526020017f414c4d0000000000000000000000000000000000000000000000000000000000815250815f90816200008d91906200030c565b5080600190816200009f91906200030c565b505050620003f0565b5f81519050919050565b7f4e487b71000000000000000000000000000000000000000000000000000000005f52604160045260245ffd5b7f4e487b71000000000000000000000000000000000000000000000000000000005f52602260045260245ffd5b5f60028204905060018216806200012457607f821691505b6020821081036200013a5762000139620000df565b5b50919050565b5f819050815f5260205f209050919050565b5f6020601f8301049050919050565b5f82821b905092915050565b5f600883026200019e7fffffffffffffffffffffffffffffffffffffffffffffffffffffffffffffffff8262000161565b620001aa868362000161565b95508019841693508086168417925050509392505050565b5f819050919050565b5f819050919050565b5f620001f4620001ee620001e884620001c2565b620001cb565b620001c2565b9050919050565b5f819050919050565b6200020f83620001d4565b620002276200021e82620001fb565b8484546200016d565b825550505050565b5f90565b6200023d6200022f565b6200024a81848462000204565b505050565b5b818110156200027157620002655f8262000233565b60018101905062000250565b5050565b601f821115620002c0576200028a8162000140565b620002958462000152565b81016020851015620002a5578190505b620002bd620002b48562000152565b8301826200024f565b50505b505050565b5f82821c905092915050565b5f620002e25f1984600802620002c5565b1980831691505092915050565b5f620002fc8383620002d1565b9150826002028217905092915050565b6200031782620000a8565b67ffffffffffffffff811115620003335762000332620000b2565b5b6200033f82546200010c565b6200034c82828562000275565b5f60209050601f83116001811462000382575f84156200036d578287015190505b620003798582620002ef565b865550620003e8565b601f198416620003928662000140565b5f5b82811015620003bb5784890151825560018201915060208501945060208101905062000394565b86831015620003db5784890151620003d7601f891682620002d1565b8355505b6001600288020188555050505b505050505050565b612ab080620003fe5f395ff3fe608060405234801561000f575f80fd5b50600436106100e8575f3560e01c8063695850fb1161008a578063a22cb46511610064578063a22cb46514610258578063b88d4fde14610274578063c87b56dd14610290578063e985e9c5146102c0576100e8565b8063695850fb146101ee57806370a082311461020a57806395d89b411461023a576100e8565b8063095ea7b3116100c6578063095ea7b31461016a57806323b872dd1461018657806342842e0e146101a25780636352211e146101be576100e8565b806301ffc9a7146100ec57806306fdde031461011c578063081812fc1461013a575b5f80fd5b610106600480360381019061010191906119c8565b6102f0565b6040516101139190611a0d565b60405180910390f35b610124610301565b6040516101319190611ab0565b60405180910390f35b610154600480360381019061014f9190611b03565b610390565b6040516101619190611b6d565b60405180910390f35b610184600480360381019061017f9190611bb0565b6103d2565b005b6101a0600480360381019061019b9190611bee565b6104e8565b005b6101bc60048036038101906101b79190611bee565b610548565b005b6101d860048036038101906101d39190611b03565b610567565b6040516101e59190611b6d565b60405180910390f35b61020860048036038101906102039190611d6a565b6105eb565b005b610224600480360381019061021f9190611db1565b61061c565b6040516102319190611deb565b60405180910390f35b6102426106d0565b60405161024f9190611ab0565b60405180910390f35b610272600480360381019061026d9190611e2e565b610760565b005b61028e60048036038101906102899190611f0a565b610776565b005b6102aa60048036038101906102a59190611b03565b6107d8565b6040516102b79190611ab0565b60405180910390f35b6102da60048036038101906102d59190611f8a565b6107ea565b6040516102e79190611a0d565b60405180910390f35b5f6102fa82610878565b9050919050565b60605f805461030f90611ff5565b80601f016020809104026020016040519081016040528092919081815260200182805461033b90611ff5565b80156103865780601f1061035d57610100808354040283529160200191610386565b820191905f5260205f20905b81548152906001019060200180831161036957829003601f168201915b5050505050905090565b5f61039a826108d8565b60045f8381526020019081526020015f205f9054906101000a900473ffffffffffffffffffffffffffffffffffffffff169050919050565b5f6103dc82610567565b90508073ffffffffffffffffffffffffffffffffffffffff168373ffffffffffffffffffffffffffffffffffffffff160361044c576040517f08c379a000000000000000000000000000000000000000000000000000000000815260040161044390612095565b60405180910390fd5b8073ffffffffffffffffffffffffffffffffffffffff1661046b610923565b73ffffffffffffffffffffffffffffffffffffffff16148061049a575061049981610494610923565b6107ea565b5b6104d9576040517f08c379a00000000000000000000000000000000000000000000000000000000081526004016104d090612123565b60405180910390fd5b6104e3838361092a565b505050565b6104f96104f3610923565b826109e0565b610538576040517f08c379a000000000000000000000000000000000000000000000000000000000815260040161052f906121b1565b60405180910390fd5b610543838383610a74565b505050565b61056283838360405180602001604052805f815250610776565b505050565b5f8061057283610d60565b90505f73ffffffffffffffffffffffffffffffffffffffff168173ffffffffffffffffffffffffffffffffffffffff16036105e2576040517f08c379a00000000000000000000000000000000000000000000000000000000081526004016105d990612219565b60405180910390fd5b80915050919050565b5f60075f8154809291906105fe90612264565b91905055905061060e3382610d99565b6106188183610db6565b5050565b5f8073ffffffffffffffffffffffffffffffffffffffff168273ffffffffffffffffffffffffffffffffffffffff160361068b576040517f08c379a00000000000000000000000000000000000000000000000000000000081526004016106829061231b565b60405180910390fd5b60035f8373ffffffffffffffffffffffffffffffffffffffff1673ffffffffffffffffffffffffffffffffffffffff1681526020019081526020015f20549050919050565b6060600180546106df90611ff5565b80601f016020809104026020016040519081016040528092919081815260200182805461070b90611ff5565b80156107565780601f1061072d57610100808354040283529160200191610756565b820191905f5260205f20905b81548152906001019060200180831161073957829003601f168201915b5050505050905090565b61077261076b610923565b8383610e58565b5050565b610787610781610923565b836109e0565b6107c6576040517f08c379a00000000000000000000000000000000000000000000000000000000081526004016107bd906121b1565b60405180910390fd5b6107d284848484610fbf565b50505050565b60606107e38261101b565b9050919050565b5f60055f8473ffffffffffffffffffffffffffffffffffffffff1673ffffffffffffffffffffffffffffffffffffffff1681526020019081526020015f205f8373ffffffffffffffffffffffffffffffffffffffff1673ffffffffffffffffffffffffffffffffffffffff1681526020019081526020015f205f9054906101000a900460ff16905092915050565b5f634906490660e01b7bffffffffffffffffffffffffffffffffffffffffffffffffffffffff1916827bffffffffffffffffffffffffffffffffffffffffffffffffffffffff191614806108d157506108d082611125565b5b9050919050565b6108e181611206565b610920576040517f08c379a000000000000000000000000000000000000000000000000000000000815260040161091790612219565b60405180910390fd5b50565b5f33905090565b8160045f8381526020019081526020015f205f6101000a81548173ffffffffffffffffffffffffffffffffffffffff021916908373ffffffffffffffffffffffffffffffffffffffff160217905550808273ffffffffffffffffffffffffffffffffffffffff1661099a83610567565b73ffffffffffffffffffffffffffffffffffffffff167f8c5be1e5ebec7d5bd14f71427d1e84f3dd0314c0f7b2291e5b200ac8c7c3b92560405160405180910390a45050565b5f806109eb83610567565b90508073ffffffffffffffffffffffffffffffffffffffff168473ffffffffffffffffffffffffffffffffffffffff161480610a2d5750610a2c81856107ea565b5b80610a6b57508373ffffffffffffffffffffffffffffffffffffffff16610a5384610390565b73ffffffffffffffffffffffffffffffffffffffff16145b91505092915050565b8273ffffffffffffffffffffffffffffffffffffffff16610a9482610567565b73ffffffffffffffffffffffffffffffffffffffff1614610aea576040517f08c379a0000000000000000000000000000000000000000000000000000000008152600401610ae1906123a9565b60405180910390fd5b5f73ffffffffffffffffffffffffffffffffffffffff168273ffffffffffffffffffffffffffffffffffffffff1603610b58576040517f08c379a0000000000000000000000000000000000000000000000000000000008152600401610b4f90612437565b60405180910390fd5b610b658383836001611246565b8273ffffffffffffffffffffffffffffffffffffffff16610b8582610567565b73ffffffffffffffffffffffffffffffffffffffff1614610bdb576040517f08c379a0000000000000000000000000000000000000000000000000000000008152600401610bd2906123a9565b60405180910390fd5b60045f8281526020019081526020015f205f6101000a81549073ffffffffffffffffffffffffffffffffffffffff0219169055600160035f8573ffffffffffffffffffffffffffffffffffffffff1673ffffffffffffffffffffffffffffffffffffffff1681526020019081526020015f205f8282540392505081905550600160035f8473ffffffffffffffffffffffffffffffffffffffff1673ffffffffffffffffffffffffffffffffffffffff1681526020019081526020015f205f82825401925050819055508160025f8381526020019081526020015f205f6101000a81548173ffffffffffffffffffffffffffffffffffffffff021916908373ffffffffffffffffffffffffffffffffffffffff160217905550808273ffffffffffffffffffffffffffffffffffffffff168473ffffffffffffffffffffffffffffffffffffffff167fddf252ad1be2c89b69c2b068fc378daa952ba7f163c4a11628f55a4df523b3ef60405160405180910390a4610d5b838383600161124c565b505050565b5f60025f8381526020019081526020015f205f9054906101000a900473ffffffffffffffffffffffffffffffffffffffff169050919050565b610db2828260405180602001604052805f815250611252565b5050565b610dbf82611206565b610dfe576040517f08c379a0000000000000000000000000000000000000000000000000000000008152600401610df5906124c5565b60405180910390fd5b8060065f8481526020019081526020015f209081610e1c9190612680565b507ff8e1a15aba9398e019f0b49df1a4fde98ee17ae345cb5f6b5e2c27f5033e8ce782604051610e4c9190611deb565b60405180910390a15050565b8173ffffffffffffffffffffffffffffffffffffffff168373ffffffffffffffffffffffffffffffffffffffff1603610ec6576040517f08c379a0000000000000000000000000000000000000000000000000000000008152600401610ebd90612799565b60405180910390fd5b8060055f8573ffffffffffffffffffffffffffffffffffffffff1673ffffffffffffffffffffffffffffffffffffffff1681526020019081526020015f205f8473ffffffffffffffffffffffffffffffffffffffff1673ffffffffffffffffffffffffffffffffffffffff1681526020019081526020015f205f6101000a81548160ff0219169083151502179055508173ffffffffffffffffffffffffffffffffffffffff168373ffffffffffffffffffffffffffffffffffffffff167f17307eab39ab6107e8899845ad3d59bd9653f200f220920489ca2b5937696c3183604051610fb29190611a0d565b60405180910390a3505050565b610fca848484610a74565b610fd6848484846112ac565b611015576040517f08c379a000000000000000000000000000000000000000000000000000000000815260040161100c90612827565b60405180910390fd5b50505050565b6060611026826108d8565b5f60065f8481526020019081526020015f20805461104390611ff5565b80601f016020809104026020016040519081016040528092919081815260200182805461106f90611ff5565b80156110ba5780601f10611091576101008083540402835291602001916110ba565b820191905f5260205f20905b81548152906001019060200180831161109d57829003601f168201915b505050505090505f6110ca61142e565b90505f8151036110de578192505050611120565b5f825111156111125780826040516020016110fa92919061287f565b60405160208183030381529060405292505050611120565b61111b84611444565b925050505b919050565b5f7f80ac58cd000000000000000000000000000000000000000000000000000000007bffffffffffffffffffffffffffffffffffffffffffffffffffffffff1916827bffffffffffffffffffffffffffffffffffffffffffffffffffffffff191614806111ef57507f5b5e139f000000000000000000000000000000000000000000000000000000007bffffffffffffffffffffffffffffffffffffffffffffffffffffffff1916827bffffffffffffffffffffffffffffffffffffffffffffffffffffffff1916145b806111ff57506111fe826114a9565b5b9050919050565b5f8073ffffffffffffffffffffffffffffffffffffffff1661122783610d60565b73ffffffffffffffffffffffffffffffffffffffff1614159050919050565b50505050565b50505050565b61125c8383611512565b6112685f8484846112ac565b6112a7576040517f08c379a000000000000000000000000000000000000000000000000000000000815260040161129e90612827565b60405180910390fd5b505050565b5f6112cc8473ffffffffffffffffffffffffffffffffffffffff16611725565b15611421578373ffffffffffffffffffffffffffffffffffffffff1663150b7a026112f5610923565b8786866040518563ffffffff1660e01b815260040161131794939291906128f4565b6020604051808303815f875af192505050801561135257506040513d601f19601f8201168201806040525081019061134f9190612952565b60015b6113d1573d805f8114611380576040519150601f19603f3d011682016040523d82523d5f602084013e611385565b606091505b505f8151036113c9576040517f08c379a00000000000000000000000000000000000000000000000000000000081526004016113c090612827565b60405180910390fd5b805181602001fd5b63150b7a0260e01b7bffffffffffffffffffffffffffffffffffffffffffffffffffffffff1916817bffffffffffffffffffffffffffffffffffffffffffffffffffffffff191614915050611426565b600190505b949350505050565b606060405180602001604052805f815250905090565b606061144f826108d8565b5f61145861142e565b90505f8151116114765760405180602001604052805f8152506114a1565b8061148084611747565b60405160200161149192919061287f565b6040516020818303038152906040525b915050919050565b5f7f01ffc9a7000000000000000000000000000000000000000000000000000000007bffffffffffffffffffffffffffffffffffffffffffffffffffffffff1916827bffffffffffffffffffffffffffffffffffffffffffffffffffffffff1916149050919050565b5f73ffffffffffffffffffffffffffffffffffffffff168273ffffffffffffffffffffffffffffffffffffffff1603611580576040517f08c379a0000000000000000000000000000000000000000000000000000000008152600401611577906129c7565b60405180910390fd5b61158981611206565b156115c9576040517f08c379a00000000000000000000000000000000000000000000000000000000081526004016115c090612a2f565b60405180910390fd5b6115d65f83836001611246565b6115df81611206565b1561161f576040517f08c379a000000000000000000000000000000000000000000000000000000000815260040161161690612a2f565b60405180910390fd5b600160035f8473ffffffffffffffffffffffffffffffffffffffff1673ffffffffffffffffffffffffffffffffffffffff1681526020019081526020015f205f82825401925050819055508160025f8381526020019081526020015f205f6101000a81548173ffffffffffffffffffffffffffffffffffffffff021916908373ffffffffffffffffffffffffffffffffffffffff160217905550808273ffffffffffffffffffffffffffffffffffffffff165f73ffffffffffffffffffffffffffffffffffffffff167fddf252ad1be2c89b69c2b068fc378daa952ba7f163c4a11628f55a4df523b3ef60405160405180910390a46117215f8383600161124c565b5050565b5f808273ffffffffffffffffffffffffffffffffffffffff163b119050919050565b60605f600161175584611811565b0190505f8167ffffffffffffffff81111561177357611772611c46565b5b6040519080825280601f01601f1916602001820160405280156117a55781602001600182028036833780820191505090505b5090505f82602001820190505b600115611806578080600190039150507f3031323334353637383961626364656600000000000000000000000000000000600a86061a8153600a85816117fb576117fa612a4d565b5b0494505f85036117b2575b819350505050919050565b5f805f90507a184f03e93ff9f4daa797ed6e38ed64bf6a1f010000000000000000831061186d577a184f03e93ff9f4daa797ed6e38ed64bf6a1f010000000000000000838161186357611862612a4d565b5b0492506040810190505b6d04ee2d6d415b85acef810000000083106118aa576d04ee2d6d415b85acef810000000083816118a05761189f612a4d565b5b0492506020810190505b662386f26fc1000083106118d957662386f26fc1000083816118cf576118ce612a4d565b5b0492506010810190505b6305f5e1008310611902576305f5e10083816118f8576118f7612a4d565b5b0492506008810190505b612710831061192757612710838161191d5761191c612a4d565b5b0492506004810190505b6064831061194a57606483816119405761193f612a4d565b5b0492506002810190505b600a8310611959576001810190505b80915050919050565b5f604051905090565b5f80fd5b5f80fd5b5f7fffffffff0000000000000000000000000000000000000000000000000000000082169050919050565b6119a781611973565b81146119b1575f80fd5b50565b5f813590506119c28161199e565b92915050565b5f602082840312156119dd576119dc61196b565b5b5f6119ea848285016119b4565b91505092915050565b5f8115159050919050565b611a07816119f3565b82525050565b5f602082019050611a205f8301846119fe565b92915050565b5f81519050919050565b5f82825260208201905092915050565b5f5b83811015611a5d578082015181840152602081019050611a42565b5f8484015250505050565b5f601f19601f8301169050919050565b5f611a8282611a26565b611a8c8185611a30565b9350611a9c818560208601611a40565b611aa581611a68565b840191505092915050565b5f6020820190508181035f830152611ac88184611a78565b905092915050565b5f819050919050565b611ae281611ad0565b8114611aec575f80fd5b50565b5f81359050611afd81611ad9565b92915050565b5f60208284031215611b1857611b1761196b565b5b5f611b2584828501611aef565b91505092915050565b5f73ffffffffffffffffffffffffffffffffffffffff82169050919050565b5f611b5782611b2e565b9050919050565b611b6781611b4d565b82525050565b5f602082019050611b805f830184611b5e565b92915050565b611b8f81611b4d565b8114611b99575f80fd5b50565b5f81359050611baa81611b86565b92915050565b5f8060408385031215611bc657611bc561196b565b5b5f611bd385828601611b9c565b9250506020611be485828601611aef565b9150509250929050565b5f805f60608486031215611c0557611c0461196b565b5b5f611c1286828701611b9c565b9350506020611c2386828701611b9c565b9250506040611c3486828701611aef565b9150509250925092565b5f80fd5b5f80fd5b7f4e487b71000000000000000000000000000000000000000000000000000000005f52604160045260245ffd5b611c7c82611a68565b810181811067ffffffffffffffff82111715611c9b57611c9a611c46565b5b80604052505050565b5f611cad611962565b9050611cb98282611c73565b919050565b5f67ffffffffffffffff821115611cd857611cd7611c46565b5b611ce182611a68565b9050602081019050919050565b828183375f83830152505050565b5f611d0e611d0984611cbe565b611ca4565b905082815260208101848484011115611d2a57611d29611c42565b5b611d35848285611cee565b509392505050565b5f82601f830112611d5157611d50611c3e565b5b8135611d61848260208601611cfc565b91505092915050565b5f60208284031215611d7f57611d7e61196b565b5b5f82013567ffffffffffffffff811115611d9c57611d9b61196f565b5b611da884828501611d3d565b91505092915050565b5f60208284031215611dc657611dc561196b565b5b5f611dd384828501611b9c565b91505092915050565b611de581611ad0565b82525050565b5f602082019050611dfe5f830184611ddc565b92915050565b611e0d816119f3565b8114611e17575f80fd5b50565b5f81359050611e2881611e04565b92915050565b5f8060408385031215611e4457611e4361196b565b5b5f611e5185828601611b9c565b9250506020611e6285828601611e1a565b9150509250929050565b5f67ffffffffffffffff821115611e8657611e85611c46565b5b611e8f82611a68565b9050602081019050919050565b5f611eae611ea984611e6c565b611ca4565b905082815260208101848484011115611eca57611ec9611c42565b5b611ed5848285611cee565b509392505050565b5f82601f830112611ef157611ef0611c3e565b5b8135611f01848260208601611e9c565b91505092915050565b5f805f8060808587031215611f2257611f2161196b565b5b5f611f2f87828801611b9c565b9450506020611f4087828801611b9c565b9350506040611f5187828801611aef565b925050606085013567ffffffffffffffff811115611f7257611f7161196f565b5b611f7e87828801611edd565b91505092959194509250565b5f8060408385031215611fa057611f9f61196b565b5b5f611fad85828601611b9c565b9250506020611fbe85828601611b9c565b9150509250929050565b7f4e487b71000000000000000000000000000000000000000000000000000000005f52602260045260245ffd5b5f600282049050600182168061200c57607f821691505b60208210810361201f5761201e611fc8565b5b50919050565b7f4552433732313a20617070726f76616c20746f2063757272656e74206f776e655f8201527f7200000000000000000000000000000000000000000000000000000000000000602082015250565b5f61207f602183611a30565b915061208a82612025565b604082019050919050565b5f6020820190508181035f8301526120ac81612073565b9050919050565b7f4552433732313a20617070726f76652063616c6c6572206973206e6f7420746f5f8201527f6b656e206f776e6572206f7220617070726f76656420666f7220616c6c000000602082015250565b5f61210d603d83611a30565b9150612118826120b3565b604082019050919050565b5f6020820190508181035f83015261213a81612101565b9050919050565b7f4552433732313a2063616c6c6572206973206e6f7420746f6b656e206f776e655f8201527f72206f7220617070726f76656400000000000000000000000000000000000000602082015250565b5f61219b602d83611a30565b91506121a682612141565b604082019050919050565b5f6020820190508181035f8301526121c88161218f565b9050919050565b7f4552433732313a20696e76616c696420746f6b656e20494400000000000000005f82015250565b5f612203601883611a30565b915061220e826121cf565b602082019050919050565b5f6020820190508181035f830152612230816121f7565b9050919050565b7f4e487b71000000000000000000000000000000000000000000000000000000005f52601160045260245ffd5b5f61226e82611ad0565b91507fffffffffffffffffffffffffffffffffffffffffffffffffffffffffffffffff82036122a05761229f612237565b5b600182019050919050565b7f4552433732313a2061646472657373207a65726f206973206e6f7420612076615f8201527f6c6964206f776e65720000000000000000000000000000000000000000000000602082015250565b5f612305602983611a30565b9150612310826122ab565b604082019050919050565b5f6020820190508181035f830152612332816122f9565b9050919050565b7f4552433732313a207472616e736665722066726f6d20696e636f7272656374205f8201527f6f776e6572000000000000000000000000000000000000000000000000000000602082015250565b5f612393602583611a30565b915061239e82612339565b604082019050919050565b5f6020820190508181035f8301526123c081612387565b9050919050565b7f4552433732313a207472616e7366657220746f20746865207a65726f206164645f8201527f7265737300000000000000000000000000000000000000000000000000000000602082015250565b5f612421602483611a30565b915061242c826123c7565b604082019050919050565b5f6020820190508181035f83015261244e81612415565b9050919050565b7f45524337323155524953746f726167653a2055524920736574206f66206e6f6e5f8201527f6578697374656e7420746f6b656e000000000000000000000000000000000000602082015250565b5f6124af602e83611a30565b91506124ba82612455565b604082019050919050565b5f6020820190508181035f8301526124dc816124a3565b9050919050565b5f819050815f5260205f209050919050565b5f6020601f8301049050919050565b5f82821b905092915050565b5f6008830261253f7fffffffffffffffffffffffffffffffffffffffffffffffffffffffffffffffff82612504565b6125498683612504565b95508019841693508086168417925050509392505050565b5f819050919050565b5f61258461257f61257a84611ad0565b612561565b611ad0565b9050919050565b5f819050919050565b61259d8361256a565b6125b16125a98261258b565b848454612510565b825550505050565b5f90565b6125c56125b9565b6125d0818484612594565b505050565b5b818110156125f3576125e85f826125bd565b6001810190506125d6565b5050565b601f82111561263857612609816124e3565b612612846124f5565b81016020851015612621578190505b61263561262d856124f5565b8301826125d5565b50505b505050565b5f82821c905092915050565b5f6126585f198460080261263d565b1980831691505092915050565b5f6126708383612649565b9150826002028217905092915050565b61268982611a26565b67ffffffffffffffff8111156126a2576126a1611c46565b5b6126ac8254611ff5565b6126b78282856125f7565b5f60209050601f8311600181146126e8575f84156126d6578287015190505b6126e08582612665565b865550612747565b601f1984166126f6866124e3565b5f5b8281101561271d578489015182556001820191506020850194506020810190506126f8565b8683101561273a5784890151612736601f891682612649565b8355505b6001600288020188555050505b505050505050565b7f4552433732313a20617070726f766520746f2063616c6c6572000000000000005f82015250565b5f612783601983611a30565b915061278e8261274f565b602082019050919050565b5f6020820190508181035f8301526127b081612777565b9050919050565b7f4552433732313a207472616e7366657220746f206e6f6e2045524337323152655f8201527f63656976657220696d706c656d656e7465720000000000000000000000000000602082015250565b5f612811603283611a30565b915061281c826127b7565b604082019050919050565b5f6020820190508181035f83015261283e81612805565b9050919050565b5f81905092915050565b5f61285982611a26565b6128638185612845565b9350612873818560208601611a40565b80840191505092915050565b5f61288a828561284f565b9150612896828461284f565b91508190509392505050565b5f81519050919050565b5f82825260208201905092915050565b5f6128c6826128a2565b6128d081856128ac565b93506128e0818560208601611a40565b6128e981611a68565b840191505092915050565b5f6080820190506129075f830187611b5e565b6129146020830186611b5e565b6129216040830185611ddc565b818103606083015261293381846128bc565b905095945050505050565b5f8151905061294c8161199e565b92915050565b5f602082840312156129675761296661196b565b5b5f6129748482850161293e565b91505092915050565b7f4552433732313a206d696e7420746f20746865207a65726f20616464726573735f82015250565b5f6129b1602083611a30565b91506129bc8261297d565b602082019050919050565b5f6020820190508181035f8301526129de816129a5565b9050919050565b7f4552433732313a20746f6b656e20616c7265616479206d696e746564000000005f82015250565b5f612a19601c83611a30565b9150612a24826129e5565b602082019050919050565b5f6020820190508181035f830152612a4681612a0d565b9050919050565b7f4e487b71000000000000000000000000000000000000000000000000000000005f52601260045260245ffdfea26469706673582212209c1a9eae4e4479d31fba647bb748dce1b4c744db93837159351e7bff5052269a64736f6c63430008140033",
  "devdoc": {
    "events": {
      "Approval(address,address,uint256)": {
        "details": "Emitted when `owner` enables `approved` to manage the `tokenId` token."
      },
      "ApprovalForAll(address,address,bool)": {
        "details": "Emitted when `owner` enables or disables (`approved`) `operator` to manage all of its assets."
      },
      "BatchMetadataUpdate(uint256,uint256)": {
        "details": "This event emits when the metadata of a range of tokens is changed. So that the third-party platforms such as NFT market could timely update the images and related attributes of the NFTs."
      },
      "MetadataUpdate(uint256)": {
        "details": "This event emits when the metadata of a token is changed. So that the third-party platforms such as NFT market could timely update the images and related attributes of the NFT."
      },
      "Transfer(address,address,uint256)": {
        "details": "Emitted when `tokenId` token is transferred from `from` to `to`."
      }
    },
    "kind": "dev",
    "methods": {
      "approve(address,uint256)": {
        "details": "See {IERC721-approve}."
      },
      "balanceOf(address)": {
        "details": "See {IERC721-balanceOf}."
      },
      "getApproved(uint256)": {
        "details": "See {IERC721-getApproved}."
      },
      "isApprovedForAll(address,address)": {
        "details": "See {IERC721-isApprovedForAll}."
      },
      "name()": {
        "details": "See {IERC721Metadata-name}."
      },
      "ownerOf(uint256)": {
        "details": "See {IERC721-ownerOf}."
      },
      "safeTransferFrom(address,address,uint256)": {
        "details": "See {IERC721-safeTransferFrom}."
      },
      "safeTransferFrom(address,address,uint256,bytes)": {
        "details": "See {IERC721-safeTransferFrom}."
      },
      "setApprovalForAll(address,bool)": {
        "details": "See {IERC721-setApprovalForAll}."
      },
      "symbol()": {
        "details": "See {IERC721Metadata-symbol}."
      },
      "transferFrom(address,address,uint256)": {
        "details": "See {IERC721-transferFrom}."
      }
    },
    "version": 1
  },
  "userdoc": {
    "kind": "user",
    "methods": {},
    "version": 1
  },
  "storageLayout": {
    "storage": [
      {
        "astId": 53,
        "contract": "contracts/NftMinter.sol:NftMinter",
        "label": "_name",
        "offset": 0,
        "slot": "0",
        "type": "t_string_storage"
      },
      {
        "astId": 55,
        "contract": "contracts/NftMinter.sol:NftMinter",
        "label": "_symbol",
        "offset": 0,
        "slot": "1",
        "type": "t_string_storage"
      },
      {
        "astId": 59,
        "contract": "contracts/NftMinter.sol:NftMinter",
        "label": "_owners",
        "offset": 0,
        "slot": "2",
        "type": "t_mapping(t_uint256,t_address)"
      },
      {
        "astId": 63,
        "contract": "contracts/NftMinter.sol:NftMinter",
        "label": "_balances",
        "offset": 0,
        "slot": "3",
        "type": "t_mapping(t_address,t_uint256)"
      },
      {
        "astId": 67,
        "contract": "contracts/NftMinter.sol:NftMinter",
        "label": "_tokenApprovals",
        "offset": 0,
        "slot": "4",
        "type": "t_mapping(t_uint256,t_address)"
      },
      {
        "astId": 73,
        "contract": "contracts/NftMinter.sol:NftMinter",
        "label": "_operatorApprovals",
        "offset": 0,
        "slot": "5",
        "type": "t_mapping(t_address,t_mapping(t_address,t_bool))"
      },
      {
        "astId": 1104,
        "contract": "contracts/NftMinter.sol:NftMinter",
        "label": "_tokenURIs",
        "offset": 0,
        "slot": "6",
        "type": "t_mapping(t_uint256,t_string_storage)"
      },
      {
        "astId": 2877,
        "contract": "contracts/NftMinter.sol:NftMinter",
        "label": "_nextTokenId",
        "offset": 0,
        "slot": "7",
        "type": "t_uint256"
      }
    ],
    "types": {
      "t_address": {
        "encoding": "inplace",
        "label": "address",
        "numberOfBytes": "20"
      },
      "t_bool": {
        "encoding": "inplace",
        "label": "bool",
        "numberOfBytes": "1"
      },
      "t_mapping(t_address,t_bool)": {
        "encoding": "mapping",
        "key": "t_address",
        "label": "mapping(address => bool)",
        "numberOfBytes": "32",
        "value": "t_bool"
      },
      "t_mapping(t_address,t_mapping(t_address,t_bool))": {
        "encoding": "mapping",
        "key": "t_address",
        "label": "mapping(address => mapping(address => bool))",
        "numberOfBytes": "32",
        "value": "t_mapping(t_address,t_bool)"
      },
      "t_mapping(t_address,t_uint256)": {
        "encoding": "mapping",
        "key": "t_address",
        "label": "mapping(address => uint256)",
        "numberOfBytes": "32",
        "value": "t_uint256"
      },
      "t_mapping(t_uint256,t_address)": {
        "encoding": "mapping",
        "key": "t_uint256",
        "label": "mapping(uint256 => address)",
        "numberOfBytes": "32",
        "value": "t_address"
      },
      "t_mapping(t_uint256,t_string_storage)": {
        "encoding": "mapping",
        "key": "t_uint256",
        "label": "mapping(uint256 => string)",
        "numberOfBytes": "32",
        "value": "t_string_storage"
      },
      "t_string_storage": {
        "encoding": "bytes",
        "label": "string",
        "numberOfBytes": "32"
      },
      "t_uint256": {
        "encoding": "inplace",
        "label": "uint256",
        "numberOfBytes": "32"
      }
    }
  }
}