{
  "address": "0x5C5A9875834Dfb7dFa0579C24C6FF7495e29bAa1",
  "abi": [
    {
      "inputs": [
        {
          "internalType": "uint256",
          "name": "_withdrawFees",
          "type": "uint256"
        }
      ],
      "stateMutability": "nonpayable",
      "type": "constructor"
    },
    {
      "inputs": [
        {
          "internalType": "address",
          "name": "nftAddress",
          "type": "address"
        },
        {
          "internalType": "uint256",
          "name": "tokenId",
          "type": "uint256"
        }
      ],
      "name": "NftMarketPlace__AlreadyListed",
      "type": "error"
    },
    {
      "inputs": [],
      "name": "NftMarketPlace__BiddingTimeIsOver",
      "type": "error"
    },
    {
      "inputs": [
        {
          "internalType": "address",
          "name": "nftAddress",
          "type": "address"
        },
        {
          "internalType": "uint256",
          "name": "tokenId",
          "type": "uint256"
        },
        {
          "internalType": "uint256",
          "name": "startBuyTime",
          "type": "uint256"
        },
        {
          "internalType": "uint256",
          "name": "endBuyTime",
          "type": "uint256"
        }
      ],
      "name": "NftMarketPlace__BuyBiddingTimeIsNotMeet",
      "type": "error"
    },
    {
      "inputs": [],
      "name": "NftMarketPlace__FeesTransferFailed",
      "type": "error"
    },
    {
      "inputs": [],
      "name": "NftMarketPlace__NoProceeds",
      "type": "error"
    },
    {
      "inputs": [],
      "name": "NftMarketPlace__NotApproveForMarketPlace",
      "type": "error"
    },
    {
      "inputs": [],
      "name": "NftMarketPlace__NotBidding",
      "type": "error"
    },
    {
      "inputs": [
        {
          "internalType": "address",
          "name": "nftAddress",
          "type": "address"
        },
        {
          "internalType": "uint256",
          "name": "tokenId",
          "type": "uint256"
        }
      ],
      "name": "NftMarketPlace__NotListed",
      "type": "error"
    },
    {
      "inputs": [],
      "name": "NftMarketPlace__NotNftOwner",
      "type": "error"
    },
    {
      "inputs": [],
      "name": "NftMarketPlace__NotTheHighestBidder",
      "type": "error"
    },
    {
      "inputs": [],
      "name": "NftMarketPlace__PriceMustBeAboveZero",
      "type": "error"
    },
    {
      "inputs": [
        {
          "internalType": "address",
          "name": "nftAddress",
          "type": "address"
        },
        {
          "internalType": "uint256",
          "name": "tokenId",
          "type": "uint256"
        },
        {
          "internalType": "uint256",
          "name": "price",
          "type": "uint256"
        }
      ],
      "name": "NftMarketPlace__PriceNotMet",
      "type": "error"
    },
    {
      "inputs": [],
      "name": "NftMarketPlace__TransferFailed",
      "type": "error"
    },
    {
      "anonymous": false,
      "inputs": [
        {
          "indexed": true,
          "internalType": "address",
          "name": "buyyer",
          "type": "address"
        },
        {
          "indexed": true,
          "internalType": "address",
          "name": "nftAddress",
          "type": "address"
        },
        {
          "indexed": false,
          "internalType": "uint256",
          "name": "tokenId",
          "type": "uint256"
        },
        {
          "indexed": false,
          "internalType": "uint256",
          "name": "price",
          "type": "uint256"
        }
      ],
      "name": "BidItemBought",
      "type": "event"
    },
    {
      "anonymous": false,
      "inputs": [
        {
          "indexed": true,
          "internalType": "address",
          "name": "seller",
          "type": "address"
        },
        {
          "indexed": true,
          "internalType": "address",
          "name": "nftAddress",
          "type": "address"
        },
        {
          "indexed": true,
          "internalType": "uint256",
          "name": "tokenId",
          "type": "uint256"
        },
        {
          "indexed": false,
          "internalType": "uint256",
          "name": "price",
          "type": "uint256"
        }
      ],
      "name": "BidItemListed",
      "type": "event"
    },
    {
      "anonymous": false,
      "inputs": [
        {
          "indexed": true,
          "internalType": "address",
          "name": "buyer",
          "type": "address"
        },
        {
          "indexed": true,
          "internalType": "address",
          "name": "nftAddress",
          "type": "address"
        },
        {
          "indexed": true,
          "internalType": "uint256",
          "name": "tokenId",
          "type": "uint256"
        },
        {
          "indexed": false,
          "internalType": "uint256",
          "name": "price",
          "type": "uint256"
        }
      ],
      "name": "ItemBought",
      "type": "event"
    },
    {
      "anonymous": false,
      "inputs": [
        {
          "indexed": true,
          "internalType": "address",
          "name": "seller",
          "type": "address"
        },
        {
          "indexed": true,
          "internalType": "address",
          "name": "nftAddress",
          "type": "address"
        },
        {
          "indexed": false,
          "internalType": "uint256",
          "name": "tokenId",
          "type": "uint256"
        }
      ],
      "name": "ItemCanceled",
      "type": "event"
    },
    {
      "anonymous": false,
      "inputs": [
        {
          "indexed": true,
          "internalType": "address",
          "name": "seller",
          "type": "address"
        },
        {
          "indexed": true,
          "internalType": "address",
          "name": "nftAddress",
          "type": "address"
        },
        {
          "indexed": true,
          "internalType": "uint256",
          "name": "tokenId",
          "type": "uint256"
        },
        {
          "indexed": false,
          "internalType": "uint256",
          "name": "price",
          "type": "uint256"
        }
      ],
      "name": "ItemListed",
      "type": "event"
    },
    {
      "anonymous": false,
      "inputs": [
        {
          "indexed": true,
          "internalType": "address",
          "name": "buyer",
          "type": "address"
        },
        {
          "indexed": true,
          "internalType": "address",
          "name": "nftAddress",
          "type": "address"
        },
        {
          "indexed": true,
          "internalType": "uint256",
          "name": "tokenId",
          "type": "uint256"
        },
        {
          "indexed": false,
          "internalType": "uint256",
          "name": "startBuyTime",
          "type": "uint256"
        },
        {
          "indexed": false,
          "internalType": "uint256",
          "name": "endBuyTime",
          "type": "uint256"
        },
        {
          "indexed": false,
          "internalType": "uint256",
          "name": "price",
          "type": "uint256"
        }
      ],
      "name": "RaiseBidPrice",
      "type": "event"
    },
    {
      "inputs": [
        {
          "internalType": "address",
          "name": "nftAddress",
          "type": "address"
        },
        {
          "internalType": "uint256",
          "name": "tokenId",
          "type": "uint256"
        }
      ],
      "name": "buyBidItem",
      "outputs": [],
      "stateMutability": "payable",
      "type": "function"
    },
    {
      "inputs": [
        {
          "internalType": "address",
          "name": "nftAddress",
          "type": "address"
        },
        {
          "internalType": "uint256",
          "name": "tokenId",
          "type": "uint256"
        }
      ],
      "name": "buyItem",
      "outputs": [],
      "stateMutability": "payable",
      "type": "function"
    },
    {
      "inputs": [
        {
          "internalType": "address",
          "name": "nftAddress",
          "type": "address"
        },
        {
          "internalType": "uint256",
          "name": "tokenId",
          "type": "uint256"
        }
      ],
      "name": "cancelBidding",
      "outputs": [],
      "stateMutability": "nonpayable",
      "type": "function"
    },
    {
      "inputs": [
        {
          "internalType": "address",
          "name": "nftAddress",
          "type": "address"
        },
        {
          "internalType": "uint256",
          "name": "tokenId",
          "type": "uint256"
        }
      ],
      "name": "cancelListing",
      "outputs": [],
      "stateMutability": "nonpayable",
      "type": "function"
    },
    {
      "inputs": [
        {
          "internalType": "address",
          "name": "nftAddress",
          "type": "address"
        },
        {
          "internalType": "uint256",
          "name": "tokenId",
          "type": "uint256"
        }
      ],
      "name": "getBidding",
      "outputs": [
        {
          "components": [
            {
              "internalType": "address",
              "name": "seller",
              "type": "address"
            },
            {
              "internalType": "address",
              "name": "buyer",
              "type": "address"
            },
            {
              "internalType": "uint256",
              "name": "price",
              "type": "uint256"
            },
            {
              "internalType": "uint256",
              "name": "startBuyTime",
              "type": "uint256"
            },
            {
              "internalType": "uint256",
              "name": "endBuyTime",
              "type": "uint256"
            }
          ],
          "internalType": "struct NftMarketPlace.Bidding",
          "name": "",
          "type": "tuple"
        }
      ],
      "stateMutability": "view",
      "type": "function"
    },
    {
      "inputs": [
        {
          "internalType": "address",
          "name": "nftAddress",
          "type": "address"
        },
        {
          "internalType": "uint256",
          "name": "tokenId",
          "type": "uint256"
        }
      ],
      "name": "getListing",
      "outputs": [
        {
          "components": [
            {
              "internalType": "uint256",
              "name": "price",
              "type": "uint256"
            },
            {
              "internalType": "address",
              "name": "seller",
              "type": "address"
            }
          ],
          "internalType": "struct NftMarketPlace.Listing",
          "name": "",
          "type": "tuple"
        }
      ],
      "stateMutability": "view",
      "type": "function"
    },
    {
      "inputs": [
        {
          "internalType": "address",
          "name": "seller",
          "type": "address"
        }
      ],
      "name": "getProceeds",
      "outputs": [
        {
          "internalType": "uint256",
          "name": "",
          "type": "uint256"
        }
      ],
      "stateMutability": "view",
      "type": "function"
    },
    {
      "inputs": [
        {
          "internalType": "address",
          "name": "nftAddress",
          "type": "address"
        },
        {
          "internalType": "uint256",
          "name": "tokenId",
          "type": "uint256"
        },
        {
          "internalType": "uint256",
          "name": "price",
          "type": "uint256"
        }
      ],
      "name": "listBiddingItem",
      "outputs": [],
      "stateMutability": "nonpayable",
      "type": "function"
    },
    {
      "inputs": [
        {
          "internalType": "address",
          "name": "nftAddress",
          "type": "address"
        },
        {
          "internalType": "uint256",
          "name": "tokenId",
          "type": "uint256"
        },
        {
          "internalType": "uint256",
          "name": "price",
          "type": "uint256"
        }
      ],
      "name": "listItem",
      "outputs": [],
      "stateMutability": "nonpayable",
      "type": "function"
    },
    {
      "inputs": [],
      "name": "owner",
      "outputs": [
        {
          "internalType": "address",
          "name": "",
          "type": "address"
        }
      ],
      "stateMutability": "view",
      "type": "function"
    },
    {
      "inputs": [
        {
          "internalType": "address",
          "name": "nftAddress",
          "type": "address"
        },
        {
          "internalType": "uint256",
          "name": "tokenId",
          "type": "uint256"
        },
        {
          "internalType": "uint256",
          "name": "price",
          "type": "uint256"
        }
      ],
      "name": "raiseBidPrice",
      "outputs": [],
      "stateMutability": "payable",
      "type": "function"
    },
    {
      "inputs": [
        {
          "internalType": "address",
          "name": "nftAddress",
          "type": "address"
        },
        {
          "internalType": "uint256",
          "name": "tokenId",
          "type": "uint256"
        },
        {
          "internalType": "uint256",
          "name": "newPrice",
          "type": "uint256"
        }
      ],
      "name": "updateListing",
      "outputs": [],
      "stateMutability": "nonpayable",
      "type": "function"
    },
    {
      "inputs": [],
      "name": "withdrawFees",
      "outputs": [
        {
          "internalType": "uint256",
          "name": "",
          "type": "uint256"
        }
      ],
      "stateMutability": "view",
      "type": "function"
    },
    {
      "inputs": [],
      "name": "withdrawProceeds",
      "outputs": [],
      "stateMutability": "payable",
      "type": "function"
    }
  ],
  "transactionHash": "0x8b086645084998a608f74a156985f35976cf4d16e18e73259b6f3eba0e2f9c88",
  "args": [
    5
  ],
  "numDeployments": 1,
  "solcInputHash": "4245c6944caa5956480e09a8ead9de0d",
  "bytecode": "0x608060405234801562000010575f80fd5b5060405162003019380380620030198339818101604052810190620000369190620000c7565b60015f819055503360015f6101000a81548173ffffffffffffffffffffffffffffffffffffffff021916908373ffffffffffffffffffffffffffffffffffffffff1602179055508060028190555050620000f7565b5f80fd5b5f819050919050565b620000a3816200008f565b8114620000ae575f80fd5b50565b5f81519050620000c18162000098565b92915050565b5f60208284031215620000df57620000de6200008b565b5b5f620000ee84828501620000b1565b91505092915050565b612f1480620001055f395ff3fe6080604052600436106100dc575f3560e01c80638f8516921161007e578063b2ddee0611610058578063b2ddee0614610266578063b460657c1461028e578063b55cdb2a146102ca578063f772adf1146102e6576100dc565b80638f851692146102245780639038e693146102405780639f37092a1461024a576100dc565b80638059432b116100ba5780638059432b1461016e57806388700d1c1461019657806389bfd38f146101d25780638da5cb5b146101fa576100dc565b806330cfeda9146100e057806342bf87711461011c578063476343ee14610144575b5f80fd5b3480156100eb575f80fd5b5061010660048036038101906101019190612966565b61030e565b60405161011391906129a9565b60405180910390f35b348015610127575f80fd5b50610142600480360381019061013d91906129ec565b610354565b005b34801561014f575f80fd5b506101586106e6565b60405161016591906129a9565b60405180910390f35b348015610179575f80fd5b50610194600480360381019061018f9190612a2a565b6106ec565b005b3480156101a1575f80fd5b506101bc60048036038101906101b791906129ec565b610a6e565b6040516101c99190612ac5565b60405180910390f35b3480156101dd575f80fd5b506101f860048036038101906101f39190612a2a565b610b33565b005b348015610205575f80fd5b5061020e610f75565b60405161021b9190612aed565b60405180910390f35b61023e60048036038101906102399190612a2a565b610f9a565b005b6102486114e3565b005b610264600480360381019061025f91906129ec565b611741565b005b348015610271575f80fd5b5061028c600480360381019061028791906129ec565b611b47565b005b348015610299575f80fd5b506102b460048036038101906102af91906129ec565b611e1d565b6040516102c19190612b6c565b60405180910390f35b6102e460048036038101906102df91906129ec565b611f4b565b005b3480156102f1575f80fd5b5061030c60048036038101906103079190612a2a565b612545565b005b5f60055f8373ffffffffffffffffffffffffffffffffffffffff1673ffffffffffffffffffffffffffffffffffffffff1681526020019081526020015f20549050919050565b8181335f8390505f8173ffffffffffffffffffffffffffffffffffffffff16636352211e856040518263ffffffff1660e01b815260040161039591906129a9565b602060405180830381865afa1580156103b0573d5f803e3d5ffd5b505050506040513d601f19601f820116820180604052508101906103d49190612b99565b90508073ffffffffffffffffffffffffffffffffffffffff168373ffffffffffffffffffffffffffffffffffffffff161461043b576040517fd0f0213d00000000000000000000000000000000000000000000000000000000815260040160405180910390fd5b86865f60045f8473ffffffffffffffffffffffffffffffffffffffff1673ffffffffffffffffffffffffffffffffffffffff1681526020019081526020015f205f8381526020019081526020015f206040518060a00160405290815f82015f9054906101000a900473ffffffffffffffffffffffffffffffffffffffff1673ffffffffffffffffffffffffffffffffffffffff1673ffffffffffffffffffffffffffffffffffffffff168152602001600182015f9054906101000a900473ffffffffffffffffffffffffffffffffffffffff1673ffffffffffffffffffffffffffffffffffffffff1673ffffffffffffffffffffffffffffffffffffffff168152602001600282015481526020016003820154815260200160048201548152505090505f73ffffffffffffffffffffffffffffffffffffffff16815f015173ffffffffffffffffffffffffffffffffffffffff16036105c6576040517fbfc2415d00000000000000000000000000000000000000000000000000000000815260040160405180910390fd5b60045f8b73ffffffffffffffffffffffffffffffffffffffff1673ffffffffffffffffffffffffffffffffffffffff1681526020019081526020015f205f8a81526020019081526020015f205f8082015f6101000a81549073ffffffffffffffffffffffffffffffffffffffff0219169055600182015f6101000a81549073ffffffffffffffffffffffffffffffffffffffff0219169055600282015f9055600382015f9055600482015f905550508973ffffffffffffffffffffffffffffffffffffffff163373ffffffffffffffffffffffffffffffffffffffff167f9ba1a3cb55ce8d63d072a886f94d2a744f50cddf82128e897d0661f5ec6231588b6040516106d291906129a9565b60405180910390a350505050505050505050565b60025481565b8282335f8390505f8173ffffffffffffffffffffffffffffffffffffffff16636352211e856040518263ffffffff1660e01b815260040161072d91906129a9565b602060405180830381865afa158015610748573d5f803e3d5ffd5b505050506040513d601f19601f8201168201806040525081019061076c9190612b99565b90508073ffffffffffffffffffffffffffffffffffffffff168373ffffffffffffffffffffffffffffffffffffffff16146107d3576040517fd0f0213d00000000000000000000000000000000000000000000000000000000815260040160405180910390fd5b5f8890503073ffffffffffffffffffffffffffffffffffffffff168173ffffffffffffffffffffffffffffffffffffffff1663081812fc8a6040518263ffffffff1660e01b815260040161082791906129a9565b602060405180830381865afa158015610842573d5f803e3d5ffd5b505050506040513d601f19601f820116820180604052508101906108669190612b99565b73ffffffffffffffffffffffffffffffffffffffff16146108b3576040517fc845ea0f00000000000000000000000000000000000000000000000000000000815260040160405180910390fd5b6040518060a001604052803373ffffffffffffffffffffffffffffffffffffffff1681526020015f73ffffffffffffffffffffffffffffffffffffffff1681526020018881526020015f81526020015f81525060045f8b73ffffffffffffffffffffffffffffffffffffffff1673ffffffffffffffffffffffffffffffffffffffff1681526020019081526020015f205f8a81526020019081526020015f205f820151815f015f6101000a81548173ffffffffffffffffffffffffffffffffffffffff021916908373ffffffffffffffffffffffffffffffffffffffff1602179055506020820151816001015f6101000a81548173ffffffffffffffffffffffffffffffffffffffff021916908373ffffffffffffffffffffffffffffffffffffffff160217905550604082015181600201556060820151816003015560808201518160040155905050878973ffffffffffffffffffffffffffffffffffffffff163373ffffffffffffffffffffffffffffffffffffffff167f2d14cfbfc5e07c6a5ef81fc5f2d5c8b6377e3757567c71bf55e05d345a398fbb8a604051610a5b91906129a9565b60405180910390a4505050505050505050565b610a76612884565b60035f8473ffffffffffffffffffffffffffffffffffffffff1673ffffffffffffffffffffffffffffffffffffffff1681526020019081526020015f205f8381526020019081526020015f206040518060400160405290815f8201548152602001600182015f9054906101000a900473ffffffffffffffffffffffffffffffffffffffff1673ffffffffffffffffffffffffffffffffffffffff1673ffffffffffffffffffffffffffffffffffffffff1681525050905092915050565b8282335f60035f8573ffffffffffffffffffffffffffffffffffffffff1673ffffffffffffffffffffffffffffffffffffffff1681526020019081526020015f205f8481526020019081526020015f206040518060400160405290815f8201548152602001600182015f9054906101000a900473ffffffffffffffffffffffffffffffffffffffff1673ffffffffffffffffffffffffffffffffffffffff1673ffffffffffffffffffffffffffffffffffffffff168152505090505f815f01511115610c385783836040517ffa1d424f000000000000000000000000000000000000000000000000000000008152600401610c2f929190612bc4565b60405180910390fd5b8686335f8390505f8173ffffffffffffffffffffffffffffffffffffffff16636352211e856040518263ffffffff1660e01b8152600401610c7991906129a9565b602060405180830381865afa158015610c94573d5f803e3d5ffd5b505050506040513d601f19601f82011682018060405250810190610cb89190612b99565b90508073ffffffffffffffffffffffffffffffffffffffff168373ffffffffffffffffffffffffffffffffffffffff1614610d1f576040517fd0f0213d00000000000000000000000000000000000000000000000000000000815260040160405180910390fd5b5f8a11610d58576040517f01e6e2e700000000000000000000000000000000000000000000000000000000815260040160405180910390fd5b5f8c90503073ffffffffffffffffffffffffffffffffffffffff168173ffffffffffffffffffffffffffffffffffffffff1663081812fc8e6040518263ffffffff1660e01b8152600401610dac91906129a9565b602060405180830381865afa158015610dc7573d5f803e3d5ffd5b505050506040513d601f19601f82011682018060405250810190610deb9190612b99565b73ffffffffffffffffffffffffffffffffffffffff1614610e38576040517fc845ea0f00000000000000000000000000000000000000000000000000000000815260040160405180910390fd5b60405180604001604052808c81526020013373ffffffffffffffffffffffffffffffffffffffff1681525060035f8f73ffffffffffffffffffffffffffffffffffffffff1673ffffffffffffffffffffffffffffffffffffffff1681526020019081526020015f205f8e81526020019081526020015f205f820151815f01556020820151816001015f6101000a81548173ffffffffffffffffffffffffffffffffffffffff021916908373ffffffffffffffffffffffffffffffffffffffff1602179055509050508b8d73ffffffffffffffffffffffffffffffffffffffff163373ffffffffffffffffffffffffffffffffffffffff167fd547e933094f12a9159076970143ebe73234e64480317844b0dcb36117116de48e604051610f5e91906129a9565b60405180910390a450505050505050505050505050565b60015f9054906101000a900473ffffffffffffffffffffffffffffffffffffffff1681565b610fa261282e565b82825f60045f8473ffffffffffffffffffffffffffffffffffffffff1673ffffffffffffffffffffffffffffffffffffffff1681526020019081526020015f205f8381526020019081526020015f206040518060a00160405290815f82015f9054906101000a900473ffffffffffffffffffffffffffffffffffffffff1673ffffffffffffffffffffffffffffffffffffffff1673ffffffffffffffffffffffffffffffffffffffff168152602001600182015f9054906101000a900473ffffffffffffffffffffffffffffffffffffffff1673ffffffffffffffffffffffffffffffffffffffff1673ffffffffffffffffffffffffffffffffffffffff168152602001600282015481526020016003820154815260200160048201548152505090505f73ffffffffffffffffffffffffffffffffffffffff16815f015173ffffffffffffffffffffffffffffffffffffffff160361112d576040517fbfc2415d00000000000000000000000000000000000000000000000000000000815260040160405180910390fd5b5f60045f8873ffffffffffffffffffffffffffffffffffffffff1673ffffffffffffffffffffffffffffffffffffffff1681526020019081526020015f205f8781526020019081526020015f206040518060a00160405290815f82015f9054906101000a900473ffffffffffffffffffffffffffffffffffffffff1673ffffffffffffffffffffffffffffffffffffffff1673ffffffffffffffffffffffffffffffffffffffff168152602001600182015f9054906101000a900473ffffffffffffffffffffffffffffffffffffffff1673ffffffffffffffffffffffffffffffffffffffff1673ffffffffffffffffffffffffffffffffffffffff168152602001600282015481526020016003820154815260200160048201548152505090508060400151851161129e57868682604001516040517f2425ddb300000000000000000000000000000000000000000000000000000000815260040161129593929190612beb565b60405180910390fd5b5f8160600151146112f7578060600151421180156112bf5750806080015142105b156112f6576040517fa08d087b00000000000000000000000000000000000000000000000000000000815260040160405180910390fd5b5b5f61012c426113069190612c4d565b90505f61012c826113179190612c4d565b90506040518060a00160405280845f015173ffffffffffffffffffffffffffffffffffffffff1681526020013373ffffffffffffffffffffffffffffffffffffffff1681526020018881526020018381526020018281525060045f8b73ffffffffffffffffffffffffffffffffffffffff1673ffffffffffffffffffffffffffffffffffffffff1681526020019081526020015f205f8a81526020019081526020015f205f820151815f015f6101000a81548173ffffffffffffffffffffffffffffffffffffffff021916908373ffffffffffffffffffffffffffffffffffffffff1602179055506020820151816001015f6101000a81548173ffffffffffffffffffffffffffffffffffffffff021916908373ffffffffffffffffffffffffffffffffffffffff160217905550604082015181600201556060820151816003015560808201518160040155905050878973ffffffffffffffffffffffffffffffffffffffff163373ffffffffffffffffffffffffffffffffffffffff167f9359ab34c5f349a375e3a70ae9f3128492487e49cd4793470f10dad2e25b9a7785858c6040516114c893929190612c80565b60405180910390a45050505050506114de61287b565b505050565b6114eb61282e565b5f60055f3373ffffffffffffffffffffffffffffffffffffffff1673ffffffffffffffffffffffffffffffffffffffff1681526020019081526020015f205490505f8111611565576040517faaefe00600000000000000000000000000000000000000000000000000000000815260040160405180910390fd5b5f60055f3373ffffffffffffffffffffffffffffffffffffffff1673ffffffffffffffffffffffffffffffffffffffff1681526020019081526020015f20819055505f6064600254836115b89190612cb5565b6115c29190612d23565b90505f81836115d19190612d53565b90505f60015f9054906101000a900473ffffffffffffffffffffffffffffffffffffffff1673ffffffffffffffffffffffffffffffffffffffff168360405161161990612db3565b5f6040518083038185875af1925050503d805f8114611653576040519150601f19603f3d011682016040523d82523d5f602084013e611658565b606091505b5050905080611693576040517f6d4f33ff00000000000000000000000000000000000000000000000000000000815260040160405180910390fd5b5f3373ffffffffffffffffffffffffffffffffffffffff16836040516116b890612db3565b5f6040518083038185875af1925050503d805f81146116f2576040519150601f19603f3d011682016040523d82523d5f602084013e6116f7565b606091505b5050905080611732576040517fcf0afe3900000000000000000000000000000000000000000000000000000000815260040160405180910390fd5b505050505061173f61287b565b565b61174961282e565b81815f60035f8473ffffffffffffffffffffffffffffffffffffffff1673ffffffffffffffffffffffffffffffffffffffff1681526020019081526020015f205f8381526020019081526020015f206040518060400160405290815f8201548152602001600182015f9054906101000a900473ffffffffffffffffffffffffffffffffffffffff1673ffffffffffffffffffffffffffffffffffffffff1673ffffffffffffffffffffffffffffffffffffffff168152505090505f815f01511161184c5782826040517f2e650be0000000000000000000000000000000000000000000000000000000008152600401611843929190612bc4565b60405180910390fd5b5f60035f8773ffffffffffffffffffffffffffffffffffffffff1673ffffffffffffffffffffffffffffffffffffffff1681526020019081526020015f205f8681526020019081526020015f206040518060400160405290815f8201548152602001600182015f9054906101000a900473ffffffffffffffffffffffffffffffffffffffff1673ffffffffffffffffffffffffffffffffffffffff1673ffffffffffffffffffffffffffffffffffffffff16815250509050805f0151341015611953578585825f01516040517f2425ddb300000000000000000000000000000000000000000000000000000000815260040161194a93929190612beb565b60405180910390fd5b3460055f836020015173ffffffffffffffffffffffffffffffffffffffff1673ffffffffffffffffffffffffffffffffffffffff1681526020019081526020015f20546119a09190612c4d565b60055f836020015173ffffffffffffffffffffffffffffffffffffffff1673ffffffffffffffffffffffffffffffffffffffff1681526020019081526020015f208190555060035f8773ffffffffffffffffffffffffffffffffffffffff1673ffffffffffffffffffffffffffffffffffffffff1681526020019081526020015f205f8681526020019081526020015f205f8082015f9055600182015f6101000a81549073ffffffffffffffffffffffffffffffffffffffff021916905550508573ffffffffffffffffffffffffffffffffffffffff166342842e0e826020015133886040518463ffffffff1660e01b8152600401611aa193929190612dc7565b5f604051808303815f87803b158015611ab8575f80fd5b505af1158015611aca573d5f803e3d5ffd5b50505050848673ffffffffffffffffffffffffffffffffffffffff163373ffffffffffffffffffffffffffffffffffffffff167f263223b1dd81e51054a4e6f791d45a4a1ddb4aadcd93a2dfd892615c3fdac187845f0151604051611b2f91906129a9565b60405180910390a450505050611b4361287b565b5050565b8181335f8390505f8173ffffffffffffffffffffffffffffffffffffffff16636352211e856040518263ffffffff1660e01b8152600401611b8891906129a9565b602060405180830381865afa158015611ba3573d5f803e3d5ffd5b505050506040513d601f19601f82011682018060405250810190611bc79190612b99565b90508073ffffffffffffffffffffffffffffffffffffffff168373ffffffffffffffffffffffffffffffffffffffff1614611c2e576040517fd0f0213d00000000000000000000000000000000000000000000000000000000815260040160405180910390fd5b86865f60035f8473ffffffffffffffffffffffffffffffffffffffff1673ffffffffffffffffffffffffffffffffffffffff1681526020019081526020015f205f8381526020019081526020015f206040518060400160405290815f8201548152602001600182015f9054906101000a900473ffffffffffffffffffffffffffffffffffffffff1673ffffffffffffffffffffffffffffffffffffffff1673ffffffffffffffffffffffffffffffffffffffff168152505090505f815f015111611d315782826040517f2e650be0000000000000000000000000000000000000000000000000000000008152600401611d28929190612bc4565b60405180910390fd5b60035f8b73ffffffffffffffffffffffffffffffffffffffff1673ffffffffffffffffffffffffffffffffffffffff1681526020019081526020015f205f8a81526020019081526020015f205f8082015f9055600182015f6101000a81549073ffffffffffffffffffffffffffffffffffffffff021916905550508973ffffffffffffffffffffffffffffffffffffffff163373ffffffffffffffffffffffffffffffffffffffff167f9ba1a3cb55ce8d63d072a886f94d2a744f50cddf82128e897d0661f5ec6231588b604051611e0991906129a9565b60405180910390a350505050505050505050565b611e256128b2565b60045f8473ffffffffffffffffffffffffffffffffffffffff1673ffffffffffffffffffffffffffffffffffffffff1681526020019081526020015f205f8381526020019081526020015f206040518060a00160405290815f82015f9054906101000a900473ffffffffffffffffffffffffffffffffffffffff1673ffffffffffffffffffffffffffffffffffffffff1673ffffffffffffffffffffffffffffffffffffffff168152602001600182015f9054906101000a900473ffffffffffffffffffffffffffffffffffffffff1673ffffffffffffffffffffffffffffffffffffffff1673ffffffffffffffffffffffffffffffffffffffff1681526020016002820154815260200160038201548152602001600482015481525050905092915050565b611f5361282e565b81815f60045f8473ffffffffffffffffffffffffffffffffffffffff1673ffffffffffffffffffffffffffffffffffffffff1681526020019081526020015f205f8381526020019081526020015f206040518060a00160405290815f82015f9054906101000a900473ffffffffffffffffffffffffffffffffffffffff1673ffffffffffffffffffffffffffffffffffffffff1673ffffffffffffffffffffffffffffffffffffffff168152602001600182015f9054906101000a900473ffffffffffffffffffffffffffffffffffffffff1673ffffffffffffffffffffffffffffffffffffffff1673ffffffffffffffffffffffffffffffffffffffff168152602001600282015481526020016003820154815260200160048201548152505090505f73ffffffffffffffffffffffffffffffffffffffff16815f015173ffffffffffffffffffffffffffffffffffffffff16036120de576040517fbfc2415d00000000000000000000000000000000000000000000000000000000815260040160405180910390fd5b5f60045f8773ffffffffffffffffffffffffffffffffffffffff1673ffffffffffffffffffffffffffffffffffffffff1681526020019081526020015f205f8681526020019081526020015f206040518060a00160405290815f82015f9054906101000a900473ffffffffffffffffffffffffffffffffffffffff1673ffffffffffffffffffffffffffffffffffffffff1673ffffffffffffffffffffffffffffffffffffffff168152602001600182015f9054906101000a900473ffffffffffffffffffffffffffffffffffffffff1673ffffffffffffffffffffffffffffffffffffffff1673ffffffffffffffffffffffffffffffffffffffff1681526020016002820154815260200160038201548152602001600482015481525050905080608001514210806122145750806060015142115b15612264578585826060015183608001516040517f80eb2a5700000000000000000000000000000000000000000000000000000000815260040161225b9493929190612dfc565b60405180910390fd5b3373ffffffffffffffffffffffffffffffffffffffff16816020015173ffffffffffffffffffffffffffffffffffffffff16146122cd576040517fbbfae8ad00000000000000000000000000000000000000000000000000000000815260040160405180910390fd5b806040015134101561231e57858582604001516040517f2425ddb300000000000000000000000000000000000000000000000000000000815260040161231593929190612beb565b60405180910390fd5b3460055f835f015173ffffffffffffffffffffffffffffffffffffffff1673ffffffffffffffffffffffffffffffffffffffff1681526020019081526020015f205461236a9190612c4d565b60055f835f015173ffffffffffffffffffffffffffffffffffffffff1673ffffffffffffffffffffffffffffffffffffffff1681526020019081526020015f208190555060045f8773ffffffffffffffffffffffffffffffffffffffff1673ffffffffffffffffffffffffffffffffffffffff1681526020019081526020015f205f8681526020019081526020015f205f8082015f6101000a81549073ffffffffffffffffffffffffffffffffffffffff0219169055600182015f6101000a81549073ffffffffffffffffffffffffffffffffffffffff0219169055600282015f9055600382015f9055600482015f905550508573ffffffffffffffffffffffffffffffffffffffff166342842e0e825f015133886040518463ffffffff1660e01b815260040161249d93929190612dc7565b5f604051808303815f87803b1580156124b4575f80fd5b505af11580156124c6573d5f803e3d5ffd5b505050508573ffffffffffffffffffffffffffffffffffffffff163373ffffffffffffffffffffffffffffffffffffffff167fdffcba3cee042fdd9e7b37465808dae6028b53d446d8acc55097cab120619df887846040015160405161252d929190612e3f565b60405180910390a35050505061254161287b565b5050565b8282335f8390505f8173ffffffffffffffffffffffffffffffffffffffff16636352211e856040518263ffffffff1660e01b815260040161258691906129a9565b602060405180830381865afa1580156125a1573d5f803e3d5ffd5b505050506040513d601f19601f820116820180604052508101906125c59190612b99565b90508073ffffffffffffffffffffffffffffffffffffffff168373ffffffffffffffffffffffffffffffffffffffff161461262c576040517fd0f0213d00000000000000000000000000000000000000000000000000000000815260040160405180910390fd5b87875f60035f8473ffffffffffffffffffffffffffffffffffffffff1673ffffffffffffffffffffffffffffffffffffffff1681526020019081526020015f205f8381526020019081526020015f206040518060400160405290815f8201548152602001600182015f9054906101000a900473ffffffffffffffffffffffffffffffffffffffff1673ffffffffffffffffffffffffffffffffffffffff1673ffffffffffffffffffffffffffffffffffffffff168152505090505f815f01511161272f5782826040517f2e650be0000000000000000000000000000000000000000000000000000000008152600401612726929190612bc4565b60405180910390fd5b5f8911612768576040517f01e6e2e700000000000000000000000000000000000000000000000000000000815260040160405180910390fd5b8860035f8d73ffffffffffffffffffffffffffffffffffffffff1673ffffffffffffffffffffffffffffffffffffffff1681526020019081526020015f205f8c81526020019081526020015f205f0181905550898b73ffffffffffffffffffffffffffffffffffffffff163373ffffffffffffffffffffffffffffffffffffffff167fd547e933094f12a9159076970143ebe73234e64480317844b0dcb36117116de48c60405161281991906129a9565b60405180910390a45050505050505050505050565b60025f5403612872576040517f08c379a000000000000000000000000000000000000000000000000000000000815260040161286990612ec0565b60405180910390fd5b60025f81905550565b60015f81905550565b60405180604001604052805f81526020015f73ffffffffffffffffffffffffffffffffffffffff1681525090565b6040518060a001604052805f73ffffffffffffffffffffffffffffffffffffffff1681526020015f73ffffffffffffffffffffffffffffffffffffffff1681526020015f81526020015f81526020015f81525090565b5f80fd5b5f73ffffffffffffffffffffffffffffffffffffffff82169050919050565b5f6129358261290c565b9050919050565b6129458161292b565b811461294f575f80fd5b50565b5f813590506129608161293c565b92915050565b5f6020828403121561297b5761297a612908565b5b5f61298884828501612952565b91505092915050565b5f819050919050565b6129a381612991565b82525050565b5f6020820190506129bc5f83018461299a565b92915050565b6129cb81612991565b81146129d5575f80fd5b50565b5f813590506129e6816129c2565b92915050565b5f8060408385031215612a0257612a01612908565b5b5f612a0f85828601612952565b9250506020612a20858286016129d8565b9150509250929050565b5f805f60608486031215612a4157612a40612908565b5b5f612a4e86828701612952565b9350506020612a5f868287016129d8565b9250506040612a70868287016129d8565b9150509250925092565b612a8381612991565b82525050565b612a928161292b565b82525050565b604082015f820151612aac5f850182612a7a565b506020820151612abf6020850182612a89565b50505050565b5f604082019050612ad85f830184612a98565b92915050565b612ae78161292b565b82525050565b5f602082019050612b005f830184612ade565b92915050565b60a082015f820151612b1a5f850182612a89565b506020820151612b2d6020850182612a89565b506040820151612b406040850182612a7a565b506060820151612b536060850182612a7a565b506080820151612b666080850182612a7a565b50505050565b5f60a082019050612b7f5f830184612b06565b92915050565b5f81519050612b938161293c565b92915050565b5f60208284031215612bae57612bad612908565b5b5f612bbb84828501612b85565b91505092915050565b5f604082019050612bd75f830185612ade565b612be4602083018461299a565b9392505050565b5f606082019050612bfe5f830186612ade565b612c0b602083018561299a565b612c18604083018461299a565b949350505050565b7f4e487b71000000000000000000000000000000000000000000000000000000005f52601160045260245ffd5b5f612c5782612991565b9150612c6283612991565b9250828201905080821115612c7a57612c79612c20565b5b92915050565b5f606082019050612c935f83018661299a565b612ca0602083018561299a565b612cad604083018461299a565b949350505050565b5f612cbf82612991565b9150612cca83612991565b9250828202612cd881612991565b91508282048414831517612cef57612cee612c20565b5b5092915050565b7f4e487b71000000000000000000000000000000000000000000000000000000005f52601260045260245ffd5b5f612d2d82612991565b9150612d3883612991565b925082612d4857612d47612cf6565b5b828204905092915050565b5f612d5d82612991565b9150612d6883612991565b9250828203905081811115612d8057612d7f612c20565b5b92915050565b5f81905092915050565b50565b5f612d9e5f83612d86565b9150612da982612d90565b5f82019050919050565b5f612dbd82612d93565b9150819050919050565b5f606082019050612dda5f830186612ade565b612de76020830185612ade565b612df4604083018461299a565b949350505050565b5f608082019050612e0f5f830187612ade565b612e1c602083018661299a565b612e29604083018561299a565b612e36606083018461299a565b95945050505050565b5f604082019050612e525f83018561299a565b612e5f602083018461299a565b9392505050565b5f82825260208201905092915050565b7f5265656e7472616e637947756172643a207265656e7472616e742063616c6c005f82015250565b5f612eaa601f83612e66565b9150612eb582612e76565b602082019050919050565b5f6020820190508181035f830152612ed781612e9e565b905091905056fea264697066735822122090e2d88c50e99d3df158fd81135cee2c0a0cfd2d0fbc0af06f3f3b90e286e73864736f6c63430008140033",
  "devdoc": {
    "kind": "dev",
    "methods": {
      "listItem(address,uint256,uint256)": {
        "details": "Tecnically, we could have the contract be the escrow for the NFTs but this way people can still hold their NFTs when listed.",
        "params": {
          "nftAddress": ": Address of th NFT",
          "price": ": sale price of the listed NFT",
          "tokenId": ": The TokenID of the NFT"
        }
      }
    },
    "version": 1
  },
  "userdoc": {
    "kind": "user",
    "methods": {
      "listItem(address,uint256,uint256)": {
        "notice": "Method for listing your NFT on the marketplace"
      }
    },
    "version": 1
  },
  "storageLayout": {
    "storage": [
      {
        "astId": 10,
        "contract": "contracts/NftMarketPlace.sol:NftMarketPlace",
        "label": "_status",
        "offset": 0,
        "slot": "0",
        "type": "t_uint256"
      },
      {
        "astId": 326,
        "contract": "contracts/NftMarketPlace.sol:NftMarketPlace",
        "label": "owner",
        "offset": 0,
        "slot": "1",
        "type": "t_address"
      },
      {
        "astId": 328,
        "contract": "contracts/NftMarketPlace.sol:NftMarketPlace",
        "label": "withdrawFees",
        "offset": 0,
        "slot": "2",
        "type": "t_uint256"
      },
      {
        "astId": 335,
        "contract": "contracts/NftMarketPlace.sol:NftMarketPlace",
        "label": "s_listings",
        "offset": 0,
        "slot": "3",
        "type": "t_mapping(t_address,t_mapping(t_uint256,t_struct(Listing)251_storage))"
      },
      {
        "astId": 342,
        "contract": "contracts/NftMarketPlace.sol:NftMarketPlace",
        "label": "s_biddings",
        "offset": 0,
        "slot": "4",
        "type": "t_mapping(t_address,t_mapping(t_uint256,t_struct(Bidding)262_storage))"
      },
      {
        "astId": 346,
        "contract": "contracts/NftMarketPlace.sol:NftMarketPlace",
        "label": "s_proceeds",
        "offset": 0,
        "slot": "5",
        "type": "t_mapping(t_address,t_uint256)"
      }
    ],
    "types": {
      "t_address": {
        "encoding": "inplace",
        "label": "address",
        "numberOfBytes": "20"
      },
      "t_mapping(t_address,t_mapping(t_uint256,t_struct(Bidding)262_storage))": {
        "encoding": "mapping",
        "key": "t_address",
        "label": "mapping(address => mapping(uint256 => struct NftMarketPlace.Bidding))",
        "numberOfBytes": "32",
        "value": "t_mapping(t_uint256,t_struct(Bidding)262_storage)"
      },
      "t_mapping(t_address,t_mapping(t_uint256,t_struct(Listing)251_storage))": {
        "encoding": "mapping",
        "key": "t_address",
        "label": "mapping(address => mapping(uint256 => struct NftMarketPlace.Listing))",
        "numberOfBytes": "32",
        "value": "t_mapping(t_uint256,t_struct(Listing)251_storage)"
      },
      "t_mapping(t_address,t_uint256)": {
        "encoding": "mapping",
        "key": "t_address",
        "label": "mapping(address => uint256)",
        "numberOfBytes": "32",
        "value": "t_uint256"
      },
      "t_mapping(t_uint256,t_struct(Bidding)262_storage)": {
        "encoding": "mapping",
        "key": "t_uint256",
        "label": "mapping(uint256 => struct NftMarketPlace.Bidding)",
        "numberOfBytes": "32",
        "value": "t_struct(Bidding)262_storage"
      },
      "t_mapping(t_uint256,t_struct(Listing)251_storage)": {
        "encoding": "mapping",
        "key": "t_uint256",
        "label": "mapping(uint256 => struct NftMarketPlace.Listing)",
        "numberOfBytes": "32",
        "value": "t_struct(Listing)251_storage"
      },
      "t_struct(Bidding)262_storage": {
        "encoding": "inplace",
        "label": "struct NftMarketPlace.Bidding",
        "members": [
          {
            "astId": 253,
            "contract": "contracts/NftMarketPlace.sol:NftMarketPlace",
            "label": "seller",
            "offset": 0,
            "slot": "0",
            "type": "t_address"
          },
          {
            "astId": 255,
            "contract": "contracts/NftMarketPlace.sol:NftMarketPlace",
            "label": "buyer",
            "offset": 0,
            "slot": "1",
            "type": "t_address"
          },
          {
            "astId": 257,
            "contract": "contracts/NftMarketPlace.sol:NftMarketPlace",
            "label": "price",
            "offset": 0,
            "slot": "2",
            "type": "t_uint256"
          },
          {
            "astId": 259,
            "contract": "contracts/NftMarketPlace.sol:NftMarketPlace",
            "label": "startBuyTime",
            "offset": 0,
            "slot": "3",
            "type": "t_uint256"
          },
          {
            "astId": 261,
            "contract": "contracts/NftMarketPlace.sol:NftMarketPlace",
            "label": "endBuyTime",
            "offset": 0,
            "slot": "4",
            "type": "t_uint256"
          }
        ],
        "numberOfBytes": "160"
      },
      "t_struct(Listing)251_storage": {
        "encoding": "inplace",
        "label": "struct NftMarketPlace.Listing",
        "members": [
          {
            "astId": 248,
            "contract": "contracts/NftMarketPlace.sol:NftMarketPlace",
            "label": "price",
            "offset": 0,
            "slot": "0",
            "type": "t_uint256"
          },
          {
            "astId": 250,
            "contract": "contracts/NftMarketPlace.sol:NftMarketPlace",
            "label": "seller",
            "offset": 0,
            "slot": "1",
            "type": "t_address"
          }
        ],
        "numberOfBytes": "64"
      },
      "t_uint256": {
        "encoding": "inplace",
        "label": "uint256",
        "numberOfBytes": "32"
      }
    }
  }
}